:100000000C94EF000C9417010C9417010C94D21768
:100010000C94D2170C94D2170C9417010C9417015E
:100020000C9417010C9417010C9417010C941701F0
:100030000C9417010C9417010C9417010C941701E0
:100040000C944F190C9417010C945D080C9437080C
:100050000C9417010C9417010C9417010C941701C0
:100060000C9417010C94170100407A10F35A00A069
:10007000724E18090010A5D4E80000E87648170071
:1000800000E40B54020000CA9A3B000000E1F505B1
:10009000000080969800000040420F000000A086FB
:1000A00001000000102700000000E803000000002D
:1000B0006400000000000A000000000001000000D1
:1000C00000002C76D888DC674F0823DFC1DFAE59EB
:1000D000E1B1B796E5E3E453C63AE651997696E87E
:1000E000E6C28426EB898C9B62ED407C6FFCEFBC02
:1000F0009C9F40F2BAA56FA5F490055A2AF75C932D
:100100006B6CF9676DC11BFCE0E40D47FEF520E662
:10011000B500D0ED902E0300943577050080841E45
:10012000080000204E0A000000C80C333333330FA0
:10013000986E12831141EF8D2114893BE65516CF3D
:10014000FEE6DB18D1844B381BF77C1D901DA4BB49
:10015000E424203284725E228100C9F124ECA1E5FE
:100160003D27005EBCE2613FDD83C29C7E20A3FD93
:100170001F41009D23BE46DB65F88C11AF32CA5784
:10018000E9740000000023002600290000000000A0
:10019000250028002B0004040404040404040202C3
:1001A00002020202030303030303010204081020F6
:1001B0004080010204081020010204081020000001
:1001C0000000240027002A000000000800020100AF
:1001D000000304070000000000000000F61E1124C8
:1001E0001FBECFEFD8E0DEBFCDBF27E0ACE8B4E064
:1001F00001C01D92A837B207E1F714E0A0E0B1E01A
:10020000E8EAF8E502C005900D92AC38B107D9F7DD
:1002100010E0CFEED0E004C02197FE010E94182626
:10022000CE3ED107C9F70E94431A0C94522C0C946D
:1002300000008F929F92AF92BF92CF92DF92EF9287
:10024000FF920F931F93CF93DF93CEE8D4E016E491
:100250008FE995E00E94B007892B09F415C68FE954
:1002600095E00E948E078B3551F41092D5041092C0
:10027000D404DE01E12F1D92EA95E9F7E9CF8D352F
:1002800009F0CEC5CEE8D4E009900020E9F7CF58B8
:10029000D440D093D704C093D60410921F05109277
:1002A0001E0585E0E8EDF4E0DF011D928A95E9F78F
:1002B00081E4EDEDF4E0DF011D928A95E9F7C430A9
:1002C000D105C4F044E050E06EE874E088ED94E0BD
:1002D0000E949029C430D10569F0AE014450510903
:1002E00050931F0540931E0562E974E08DED94E084
:1002F0000E94902968ED74E08FED91E00E948729BB
:10030000892BB1F584EE91E00E94DD1060E089E078
:100310000E949E1888EF91E00E94DD1083E092E039
:100320000E94DD10C4EFD1E00BEF1CE760E082E03B
:100330000E949E1861E083E00E949E1860E083E0C6
:100340000E949E18C8010197F1F7219779F782E181
:1003500092E00E94DD1061E089E00E949E1882E236
:1003600092E00E94DD108EE292E00E94DD1036C520
:10037000C0918C04D0918D040A811B81F801858184
:10038000882309F42EC568ED74E080E492E00E94B1
:100390008729892B09F428C568ED74E085E492E08B
:1003A0000E948729892BF1F48E01085F1F4FE88195
:1003B000F981838D8F93828D8F93818D8F93808D23
:1003C0008F938AE492E09F938F931F930F930E94E1
:1003D0009F298DB79EB708960FB6F8949EBF0FBEA3
:1003E0008DBF25C068ED74E080E592E00E9487290A
:1003F000892BF9F48E01085F1F4FE881F981878D01
:100400008F93868D8F93858D8F93848D8F938AE4C0
:1004100092E09F938F931F930F930E949F29ADB7F4
:10042000BEB718960FB6F894BEBF0FBEADBFC801D9
:10043000E9C468ED74E085E592E00E948729892B84
:1004400091F44AE050E060E070E08DED94E00E94AD
:100450008C21AB01BC01888199810E94A012882364
:1004600009F4C5C4BBC468ED74E08AE592E00E945B
:100470008729892B01F5F8018285811103C5019037
:10048000F081E02D85859685A785B089892B8A2BFB
:100490008B2B51F0F80186859785A089B189892B2E
:1004A0008A2B8B2B09F0CBC480E028961F928F9368
:1004B0008FE592E0F4C268ED74E085E692E00E9478
:1004C0008729892B99F4D801ED91FC91608571857C
:1004D0006130710511F460E070E0C8014E960E9431
:1004E000930E8A819B810E94190F78C468ED74E095
:1004F0008AE692E00E948729892B21F4C8010E9494
:10050000EF126CC468ED74E08FE692E00E948729D8
:10051000892BF1F48E01085F1F4FE881F9818381F7
:100520008F9382818F9381818F9380818F938AE4CF
:1005300092E09F938F931F930F930E949F29EDB793
:10054000FEB738960FB6F894FEBF0FBEEDBF6FCF63
:1005500068ED74E084E792E00E948729892BC1F559
:100560004AE050E060E070E08DED94E00E948C2164
:10057000E881F981603127E272078105910520F455
:1005800060E177E280E090E0048D158D268D378D57
:10059000601771078207930720F4648F758F868F29
:1005A000978F008D118D228D338D60177107820713
:1005B000930720F4608F718F828F938FDF01A05B90
:1005C000BF4F21E02C93608371838283938306C4A1
:1005D00068ED74E089E792E00E948729892BF1F4A5
:1005E0008E01085F1F4FE881F98187818F93868193
:1005F0008F9385818F9384818F938AE492E09F9378
:100600008F931F930F930E949F298DB79EB70896D3
:100610000FB6F8949EBF0FBE8DBF09CF68ED74E092
:100620008EE792E00E948729892BF1F44AE050E09E
:1006300060E070E08DED94E00E948C21E881F9810A
:10064000683EA3E07A078105910520F468EE73E027
:1006500080E090E0DF01A05BBF4F21E02C9364833A
:10066000758386839783BAC368ED74E083E892E06C
:100670000E948729892B49F48E01085F1F4FE8816A
:10068000F98183858F93828510C068ED74E088E8D6
:1006900092E00E948729892BC1F48E01085F1F4FC9
:1006A000E881F98181858F9380858F938FE592E032
:1006B0009F938F931F930F930E949F290F900F90EA
:1006C0000F900F900F900F90B2CE68ED74E08DE810
:1006D00092E00E948729892B79F54AE050E060E09A
:1006E00070E08DED94E00E948C21E881F9819B01FE
:1006F0002150310922303105B8F064307105A1F084
:100700006830710589F06031710571F060327105F2
:1007100059F06034710541F06038710529F06115B8
:10072000B1E07B0709F066C3DF01A05BBF4F21E0AA
:100730002C937187608752C368ED74E082E992E080
:100740000E948729892B39F48E01085F1F4FE881A9
:10075000F98184855EC168ED74E087E992E00E94CA
:100760008729892BB1F44AE050E060E070E08DED1C
:1007700094E00E948C21E881F9818FEF860F85300B
:1007800008F03BC3DF01A05BBF4F81E08C9364871F
:1007900025C368ED74E08CE992E00E948729892BDB
:1007A00071F48881998124E2FC01B496DC01019006
:1007B0000D922A95E1F761E00E9448150FC368ED9C
:1007C00074E081EA92E00E948729892B19F40C9445
:1007D000000016C368ED74E086EA92E00E94872963
:1007E000892BF1F48E01085F1F4FE881F981808920
:1007F0008F9387858F9386858F9385858F938AE4E2
:1008000092E09F938F931F930F930E949F29EDB7C0
:10081000FEB738960FB6F894FEBF0FBEEDBF07CEF9
:1008200068ED74E08BEA92E00E948729892BA1F49D
:100830004AE050E060E070E08DED94E00E948C2191
:10084000E881F981DF01A05BBF4F21E02C93658730
:1008500076878787908BC2C268ED74E080EB92E068
:100860000E948729892B09F4B9C268ED74E085EBF1
:1008700092E00E948729892B39F48E01085F1F4F6F
:10088000E881F9818589C5C068ED74E08AEB92E062
:100890000E948729892B81F48DED94E00E948122AA
:1008A000E881F981DF01A05BBF4F21E02C93892B08
:1008B00009F420E0258B92C268ED74E08FEB92E0A2
:1008C0000E948729892B31F54AE050E060E070E012
:1008D0008DED94E00E948C21E881F98100811181E5
:1008E00022813381462F572FBC0104171507260795
:1008F000370710F4B901A801DF01A05BBF4F81E009
:100900008C93448F558F668F778F408F518F628F76
:10091000738F64C268ED74E084EC92E00E948729D2
:10092000892BF1F48E01085F1F4FE881F9818489DA
:100930008F9383898F9382898F9381898F938AE4A0
:1009400092E09F938F931F930F930E949F298DB7DF
:100950009EB708960FB6F8949EBF0FBE8DBF67CDA9
:1009600068ED74E089EC92E00E948729892BA1F45C
:100970004AE050E060E070E08DED94E00E948C2150
:10098000E881F981DF01A05BBF4F21E02C93618BEF
:10099000728B838B948B22C268ED74E08EEC92E0B4
:1009A0000E948729892B39F48E01085F1F4FE88147
:1009B000F98186892EC068ED74E083ED92E00E9493
:1009C0008729892BC1F44AE050E060E070E08DEDAA
:1009D00094E00E948C21E881F981662321F065363C
:1009E00018F064E601C061E0DF01A05BBF4F81E069
:1009F0008C93668B2FC068ED74E088ED92E00E94C6
:100A00008729892B41F48E01085F1F4FE881F98106
:100A100087891F924ACE68ED74E08DED92E00E94C6
:100A20008729892BE1F44AE050E060E070E08DED29
:100A300094E00E948C21E881F981662321F06536DB
:100A400018F064E601C061E0DF01A05BBF4F81E008
:100A50008C93678B8A819B810E949511BFC168ED41
:100A600074E082EE92E00E948729892B31F50C8197
:100A70001D810E5E1F4FC8010E94230EC8010E94F7
:100A8000C3197E01A8E0EA0EF11C870122E046E0CE
:100A90000E946C21EA96FF92EF9287EE92E09F937C
:100AA0008F93DF93CF930E949F290F900F900F9009
:100AB0000F900F900F90CE01A5C168ED74E08CEE01
:100AC00092E00E948729892B09F09AC10E94130F96
:100AD00081EF92E00E94DD100881198182E093E0AD
:100AE0000E94170F80E094E00E94562180E193E07D
:100AF0000E94170FF801E25BFF4F808191810E94F5
:100B000056218AE293E00E94170FF801E45BFF4F41
:100B1000808191810E94562180E493E00E94170F0A
:100B2000D8016D917D918D919C910E9417218EE449
:100B300093E00E94170FF801648175818681978187
:100B40000E9417218CE593E00E94170FD801189698
:100B50008C910E94242187E693E00E94170FF801F0
:100B600082850E94242188E793E00E94170FD80114
:100B70001C968C910E94242184E893E00E94170F18
:100B8000F80165857685878590890E94172185E91A
:100B900093E00E94170FD80151966D917D918D9130
:100BA0009C9154970E94172189EA93E00E94170FA5
:100BB000F801858990E00E9456218CEB93E00E9419
:100BC000170FD80156968C910E94242183ED93E053
:100BD0000E94170FF80187890E9424218AEE93E072
:100BE0000E94170FD80158966D917D918D919C911F
:100BF0005B970E94172185EF93E00E94170FF80181
:100C0000648D758D868D978D0E94172186E094E006
:100C10000E94170FD80190966D917D918D919C91B6
:100C200093970E94172181E194E00E94DD100A81D0
:100C30001B8181E294E00E94170FF80166817781A1
:100C40008085918597FF03C00E94352103C04AE04B
:100C50000E94D6200E94130F8BE394E00E94DD10C7
:100C60000C80DD81C02D8BE494E00E94170FCE0133
:100C70000E946B110E9456218FE594E00E94170F8D
:100C8000C8A4D9A4EAA4FBA4A7019601C701B60190
:100C90000E945C28882319F08DE694E01AC0460172
:100CA0005701E894B7F82FEF3FEF4FE75FE7C50133
:100CB000B4010E945C2881110FC02FEF3FEF4FE776
:100CC0005FE7C501B4010E948B2618162CF481E75A
:100CD00094E00E94010F76C02FEF3FEF4FE75FE4F3
:100CE000C701B6010E94EA2718161CF485E794E0B4
:100CF000F0CF2FEF3FEF4FE75FECC701B6010E9447
:100D00008B2687FDF3CF20E030E0A901C701B601B3
:100D10000E948B2687FF09C06DE28FE995E00E9453
:100D2000C807F7FAF094F7F8F0942AE037ED43EAB1
:100D30005BE3C701B6010E941F264B015C010E94C4
:100D400009276B017C010E9438279B01AC01C5017A
:100D5000B4010E941E264B015C014AE0C701B601A6
:100D60000E94D6206EE28FE995E00E94C80720E03D
:100D700030E040E251E4C501B4010E94EF274B018D
:100D80005C010E9409276B01E12CF12C4AE0C701AC
:100D9000B6010E94D620C701B6010E9438279B01E8
:100DA000AC01C501B4010E941E2620E030E040E203
:100DB00051E40E94EF270E94092780E090E04AE07A
:100DC0000E94D6200E94130F89E794E00E94170F1B
:100DD0008EA190E00E9456210E94130F86E991E0B7
:100DE00011C08BE991E00EC081EA91E00BC08DEC5F
:100DF00091E008C089ED91E005C083ED91E002C06B
:100E000087EC91E0DF91CF911F910F91FF90EF90D0
:100E1000DF90CF90BF90AF909F908F900C94170F62
:100E20002091D4043091D504F901E457FB4F82831B
:100E30002F5F3F4F3093D5042093D40409CA0E94FA
:100E40004319D8011E96CD90DD90ED90FC905197FE
:100E5000DC01CB018C199D09AE09BF09F801208185
:100E60003181F901C584D684E784F0888C159D050D
:100E7000AE05BF0538F0D8011E961D921D921D9239
:100E80001C92519781E011CBDF91CF911F910F916F
:100E9000FF90EF90DF90CF90BF90AF909F908F909A
:100EA0000895CF92DF92EF92FF920F931F93CF930B
:100EB000DF936C017A018B01C0E0D0E0CE15DF0535
:100EC00081F0D8016D918D01D601ED91FC910190D9
:100ED000F081E02DC6010995892B11F02196EECF06
:100EE0007E01C701DF91CF911F910F91FF90EF908D
:100EF000DF90CF900895089580E090E00895FC0180
:100F0000538D448D252F30E0842F90E0821B930B6E
:100F1000541710F0CF96089501970895FC01918D14
:100F2000828D981761F0828DDF01A80FB11D5D964B
:100F30008C91928D9F5F9F73928F90E008958FEFB9
:100F40009FEF0895FC01918D828D981731F0828D6D
:100F5000E80FF11D858D90E008958FEF9FEF0895C4
:100F6000FC01918D228D892F90E0805C9F4F821B28
:100F700091098F73992708958FE995E00E94B00732
:100F800021E0892B09F420E0822F08950E94822914
:100F9000EF92FF920F931F93CF93DF93EC0181E0C9
:100FA000888F9B8D8C8D981305C0E889F989808185
:100FB00085FD26C0F62E0B8D10E00F5F1F4F0F73BF
:100FC0001127E02E8C8DE8120CC00FB607FCFACF6B
:100FD000E889F989808185FFF5CFCE010E94580C00
:100FE000F1CF8B8DFE01E80FF11DE35AFF4FF08228
:100FF0009FB7F8940B8FEA89FB89808180620AC0D1
:101000009FB7F894EE89FF896083E889F989808128
:101010008370806480839FBF81E090E0DF91CF91F7
:101020001F910F91FF90EF900895CF93DF93EC0104
:10103000888D8823C9F0EA89FB89808185FD05C0F8
:10104000A889B9898C9186FD0FC00FB607FCF5CF32
:10105000808185FFF2CFA889B9898C9185FFEDCF7A
:10106000CE010E94580CE7CFDF91CF9108951F92D7
:101070000F920FB60F9211242F933F934F935F93CC
:101080006F937F938F939F93AF93BF93EF93FF9350
:101090008FE995E00E94580CFF91EF91BF91AF91BD
:1010A0009F918F917F916F915F914F913F912F9180
:1010B0000F900FBE0F901F9018951F920F920FB6B2
:1010C0000F9211242F938F939F93EF93FF93E091AF
:1010D000AF05F091B0058081E091B505F091B605BE
:1010E00082FD12C090818091B8058F5F8F7320912F
:1010F000B905821751F0E091B805F0E0E156FA4FDA
:10110000958F8093B80501C08081FF91EF919F91E9
:101110008F912F910F900FBE0F901F90189580E028
:1011200090E0892B29F00E94BC0781110C940000EB
:101130000895DC019F962C919F97211107C0ED9196
:10114000FC910280F381E02D6FE6099460E070E08D
:10115000CB0108956F70DC0195962C919597207FB7
:10116000622B95966C93959792962D913D914D910A
:101170005C919597ED91FC910190F081E02D6CE6EA
:101180000994DC0194962C91949760FB21F9949634
:101190002C93949792962D913D914D915C919597BA
:1011A000ED91FC910190F081E02D6CE60994DC0159
:1011B00093968C91939760FB87F993968C93939772
:1011C0006695617094968C9194978E7F682B949617
:1011D0006C93949792962D913D914D915C9195973A
:1011E000ED91FC9111970190F081E02D6CE6CD011D
:1011F0000994DC0192968C91929760FB87F9929604
:101200008C9392976695677093968C919397887F4D
:10121000682B93966C93939792962D913D914D9157
:101220005C919597ED91FC9111970190F081E02DE3
:101230006CE6CD010994DC016770962F9295907F42
:1012400092966C9192976F78692B92966C93929785
:1012500092962D913D914D915C919597ED91FC91D8
:1012600011970190F081E02D6CE6CD010994CF92A9
:10127000DF92EF92FF920F931F93CF93DF93CDB73F
:10128000DEB728970FB6F894DEBF0FBECDBF7C0146
:101290008E010F5F1F4F88E0D8011D928A95E9F7F4
:1012A00085E08983F70186A58A8360686B835C8308
:1012B0004D833E832F8367E0C8010E94AA17888769
:1012C000D7019C968D919C919D97FE0139966F0157
:1012D000892B71F1D7019C968D919C919D97F80176
:1012E00061918F01DC01ED91FC910190F081E02D85
:1012F0000995F70121893289820F931F928B818B87
:10130000C016D10639F762E070E080E090E00E94FC
:10131000091928960FB6F894DEBF0FBECDBFDF9136
:10132000CF911F910F91FF90EF90DF90CF90089594
:10133000D7019A968D919C919B97F80161918F01AD
:10134000DC01ED91FC910190F081E02D0995F70110
:1013500021893289820F931F928B818B0C151D0579
:1013600039F7D1CF2F923F924F925F926F927F9237
:101370008F929F92AF92BF92CF92DF92EF92FF92A5
:101380000F931F93CF93DF93CDB7DEB765970FB65B
:10139000F894DEBF0FBECDBF9C8B8B8B19861A864F
:1013A0001B861C8685E08987AB89BC899E968C91BB
:1013B0008A876B8763E0CE0109960E94AA178C8703
:1013C000B2E0BD8BFE013D96FE87ED87AB89BC89FF
:1013D0009C968D919C919D97009709F4E7C00E947F
:1013E0004C18EB89FC8924A435A4D101ED91FC9122
:1013F0000084F185E02DC1010995181619064CF4F9
:10140000D101ED91FC910284F385E02DC101099594
:10141000ECCF8E01075F1F4FF80161918F01D10161
:10142000ED91FC910190F081E02DC1010995ED85D0
:10143000FE85E017F10781F762E070E080E090E060
:101440000E9409190E9443194B015C0129858B8573
:1014500090E0A0E0B0E09F6FAC01BD01622B4F8730
:10146000588B698B7A8BC12CD12C760105E010E06A
:101470000E9443192B013C01681579058A059B05DB
:1014800021F00150110909F482C0D101ED91FC91C4
:101490000284F385E02DC101099597FD0FC0FE2C54
:1014A000ED2CDC2CCC24AC015527052E000C660B52
:1014B000770BC42AD52AE62AF72AFF2453014201D2
:1014C0002F85388949895A892C153D054E055F05B8
:1014D00079F629013A01812C912C54010E9443197B
:1014E0006B017C0145E050E0588B4F8710E00E9473
:1014F00043196C157D058E059F0551F0AF85B889A0
:101500001197B88BAF87AB2B09F441C06B017C01FD
:10151000D101ED91FC910284F385E02DC101099583
:10152000DC0197FF03C0153010F31DC09201A30129
:10153000B401C50108E00E94CD25BB27EB2FEE0FBB
:10154000EE0B422E4A2A532E5B2A6E2E642A7E2EE2
:10155000752A8E2E862A9E2E972AAE2EA82ABE2E59
:10156000B92A1F5FE0CFD101ED91FC910084F18594
:10157000E02DC1010995181619068CF4D101ED91E1
:10158000FC910284F385E02DC1010995ECCF412C3B
:10159000512C612C712C812C912CA12CB12CEB891C
:1015A000FC8984A595A50E946C0FE0C0AB89BC891D
:1015B0009A962D903C909B97D101ED91FC910084DF
:1015C000F185E02DC1010995181619064CF4D101D9
:1015D000ED91FC910284F385E02DC1010995ECCFDA
:1015E0008E01075F1F4FF80161918F01D101ED91CD
:1015F000FC910190F081E02DC1010995ED85FE85FA
:101600000E171F0781F762E070E080E090E00E9413
:1016100009190E9443194B015C0129858B8590E0D3
:10162000A0E0B0E09F6FAC01BD01622B4F87588BEB
:10163000698B7A8BC12CD12C760105E010E00E94D9
:1016400043192B013C01681579058A059B0521F09A
:101650000150110909F482C0D101ED91FC9102847D
:10166000F385E02DC101099597FD0FC0FE2CED2CEF
:10167000DC2CCC24AC015527052E000C660B770B17
:10168000C42AD52AE62AF72AFF24530142012F85CE
:10169000388949895A892C153D054E055F0579F62B
:1016A00029013A01812C912C54010E9443196B01AC
:1016B0007C0145E050E0588B4F8710E00E944319B1
:1016C0006C157D058E059F0551F0AF85B889119782
:1016D000B88BAF87AB2B09F441C06B017C01D10102
:1016E000ED91FC910284F385E02DC1010995DC01A7
:1016F00097FF03C0153010F31DC09201A301B40180
:10170000C50108E00E94CD25BB27EB2FEE0FEE0BA5
:10171000422E4A2A532E5B2A6E2E642A7E2E752A6A
:101720008E2E862A9E2E972AAE2EA82ABE2EB92A43
:101730001F5FE0CFD101ED91FC910084F185E02D98
:10174000C1010995181619068CF4D101ED91FC918F
:101750000284F385E02DC1010995ECCF412C512C79
:10176000612C712C812C912CA12CB12C62E070E0A9
:1017700080E090E00E940919EB89FC89178A9201A8
:10178000A301B401C50108E30E94E8252983920161
:10179000A301B401C50100E30E94E8252A83920158
:1017A000A301B401C50108E20E94E8252B83920140
:1017B000A301B401C50100E20E94E8252C83920137
:1017C000A301B401C50108E10E94E8252D8392011F
:1017D000A301B401C50100E10E94E8252E83920116
:1017E000A301B401C50108E00E94E8252F834886C3
:1017F00067E0CE0101960E94AA17481202C041106C
:1018000012C0E1E0AB89BC895796EC93FD89F15099
:10181000FD8BF111DBCD412C512C612C712C812CD5
:10182000912CA12CB12C9201A301B401C50108E0B7
:101830000E94E825B901CA0165960FB6F894DEBF8B
:101840000FBECDBFDF91CF911F910F91FF90EF9011
:10185000DF90CF90BF90AF909F908F907F906F90D0
:101860005F904F903F902F9008950E949517892F79
:101870008F7008950E9495178695817008950E9433
:101880009517771F7727771F8170880F872B08950B
:101890000E949517862F881F8827881F7770770FDB
:1018A000872B08950E949517862F8295877008953B
:1018B000FC01848DDF01A80FB11DA35ABF4F2C91ED
:1018C000848D90E001968F739927848FA689B789BC
:1018D0002C93A089B1898C91837080648C93938DB3
:1018E000848D981306C00288F389E02D80818F7D56
:1018F00080830895DC0180E0615098F02D91982F4D
:101900009227E92FEF70F0E0EE59FE4F2491929567
:101910009F70E92FF0E0EE58FE4FE491822F8E2762
:10192000EBCF0895FC0190810180F281E02DF894C5
:101930008181892B81832281892F8095282322838D
:10194000A7E0B0E01197F1F7218182238183A3E220
:10195000B0E01197F1F780817894EFECF0E03197E7
:10196000F1F7982381E009F480E00895FC0190816B
:101970000180F281E02D892F809560FF12C0F894DC
:101980002281822382838181892B8183A3E2B0E03B
:101990001197F1F78281982B9283789487ED90E0EC
:1019A00011C0F8942281822382838181892B8183D3
:1019B000AFEFB0E01197F1F78281982B9283789482
:1019C0008FE090E00197F1F70895DF92EF92FF9298
:1019D0000F931F93CF93DF93EC01D62EE42E08E0F4
:1019E00010E0FF24F39461E08D2D8F2109F460E075
:1019F000CE010E94B60CFF0C01501109A1F7E110B5
:101A000010C0F894E981FA819181888180958923B9
:101A10008183E981FA8192818881809589238283FB
:101A20007894DF91CF911F910F91FF90EF90DF900D
:101A30000895EF92FF920F931F93CF93DF938C0142
:101A40007B0140E065E50E94E50CE70188E0E80ED7
:101A5000F11C699140E0C8010E94E50CCE15DF053C
:101A6000C1F7DF91CF911F910F91FF90EF900895F3
:101A7000DC012C911196ED91FC911297F8948181E3
:101A8000922F90958923818378948DE743E050E0ED
:101A9000815021F1DA011197F1F730813223C1F33E
:101AA000F8948281892382838181822B8183789437
:101AB000ABE7B7E01197F1F7F89481819823918310
:101AC00083E191E00197F1F78081282381E009F01B
:101AD00080E07894E3E6F6E03197F1F708958F928D
:101AE0009F92AF92BF92CF92DF92EF92FF920F93AD
:101AF0001F93CF93DF938C017A01FC01868197813C
:101B00000E94190D40E06EEBF801868197810E94DA
:101B1000E50CE7015701F9E0AF0EB11CF801868032
:101B2000978088E0C82ED12CF12CEE24E394C401D8
:101B30000E94920C8111FE28EE0CF1E0CF1AD10820
:101B4000B1F7F992AC16BD0649F7F8018681978185
:101B50000E94380D91E0813009F090E0892FDF91EB
:101B6000CF911F910F91FF90EF90DF90CF90BF909A
:101B7000AF909F908F900895EF92FF920F931F93D5
:101B8000CF93DF93CDB7DEB729970FB6F894DEBFBA
:101B90000FBECDBF7C018B01FC01868197810E9425
:101BA000380D882309F440C0AE014F5F5F4FB80184
:101BB000C7010E946F0D8823B9F168E0CE0101963C
:101BC0000E947A0C998589132FC02A8130E0A901DF
:101BD000542F4427550F550F550F8981F8E08F9FDB
:101BE000C00111249A01282B392BF8018081803102
:101BF000C9F4688570E08F81AB01481B5109CA01A7
:101C00009695982F8827979587950E949A25CB01BE
:101C10004097207F53E0220F331F5A95E1F7820F40
:101C2000931F04C0C90102C080E894EE29960FB644
:101C3000F894DEBF0FBECDBFDF91CF911F910F9102
:101C4000FF90EF9008958F929F92AF92BF92CF92A4
:101C5000DF92EF92FF920F931F93CF93DF93EC01EC
:101C60008E819F810E94380D40E06CEC8E819F81B7
:101C70000E94E50C488164E48E819F810E94E50CFE
:101C80008A81882309F442C0E981E950E33040F4B5
:101C9000F0E0EE0FFF1FEA5FFE4F0081118102C0EE
:101CA0000EEE12E08B818823F9F0888181111CC02F
:101CB0000E9443194B015C016801110FEE08FF08F7
:101CC0008E819F810E94920C813001F10E94431904
:101CD000DC01CB018C199D09AE09BF098815990556
:101CE000AA05BB0568F312C0B801110F880B990B48
:101CF000DF91CF911F910F91FF90EF90DF90CF90E8
:101D0000BF90AF909F908F900C940919DF91CF9165
:101D10001F910F91FF90EF90DF90CF90BF90AF9009
:101D20009F908F9008956031710509F441C088F447
:101D30006230710509F454C020F4672B09F458C0CF
:101D400008956430710509F443C068307105C1F12C
:101D5000089560347105E1F020F46032710501F1FD
:101D600008956038710561F06115714009F048C04F
:101D7000DC01ED91FC910288F389E02D60E03FC029
:101D8000DC01ED91FC910288F389E02D61E037C020
:101D9000DC01ED91FC910288F389E02D62E02FC017
:101DA000DC01ED91FC910288F389E02D63E027C00E
:101DB000DC01ED91FC910288F389E02D64E01FC005
:101DC000DC01ED91FC910288F389E02D65E017C0FC
:101DD000DC01ED91FC910288F389E02D66E00FC0F3
:101DE000DC01ED91FC910288F389E02D67E007C0EA
:101DF000DC01ED91FC910288F389E02D68E0099403
:101E00000895009769F0FC0101900020E9F73197EF
:101E1000AF01481B590BBC018FE995E00C945107A9
:101E200080E090E0089588E894E00C94010F0C9411
:101E3000010FCF93DF93EC0181E08A870E94431961
:101E40006A8B7B8B8C8B9D8BE881F98184858330B9
:101E5000C1F048F4813081F0823001F580E89BEBDD
:101E6000A0E0B0E017C0843089F08530B9F480EA92
:101E70009FE0A0E0B0E00EC080E097E7A1E0B0E016
:101E800009C080EC9DE5A0E0B0E004C080E49FE1E3
:101E9000A0E0B0E08A8F9B8FAC8FBD8F208531850D
:101EA00040E050E06A8D7B8D8C8D9D8D0E94AE252B
:101EB0002A8F3B8F4C8F5D8FDF91CF910895DC018E
:101EC000ED91FC91628573856130710511F460E0DC
:101ED00070E04E960C94930EE0919D05F0919E0556
:101EE000E817F90769F4A389B4899C9185898095DD
:101EF00089238C9310929E0510929D0581E0089590
:101F000080E008958AEB96E090936D0680936C06CE
:101F10008CE396E090936F0680936E068091700636
:101F200081112FC061E082E00E94CD1861E083E062
:101F30000E94CD1861E088E00E94CD1861E087E042
:101F40000E94CD1861E089E00E94CD1862E085E032
:101F50000E94CD1862E086E00E94CD1860E08EE01D
:101F60000E94CD1860E082E00E949E1860E083E04D
:101F70000E949E1861E089E00E949E1881E0809393
:101F80007006E091B606F091B706309709F45FC08D
:101F9000138E128E118E108E178A168A8FE190E0A2
:101FA000958F848F9485963108F04EC021E030E003
:101FB000378B268B2DE130E0318F208F2DE030E004
:101FC000338F228F30916800983058F021E09E3096
:101FD00008F420E091E0892F01C0880F2A95EAF7E4
:101FE00001C084E0832B809368008485883038F0BA
:101FF0008E3040F0863148F020E030E008C02DE619
:1020000030E005C02BE630E002C02CE630E0348B37
:10201000238B883030F491E001C0990F8A95EAF75C
:102020000EC0282F30E08E3018F42850310902C03D
:102030002E50310991E001C0990F2A95EAF7958B4E
:10204000848D958D0197F1F7CF010E944C188091F6
:10205000A20680648093A206282F8091A306382FC1
:10206000337040E050E060E08AE896E00E94370973
:102070008091A20680688093A206282F8091A306F3
:10208000382F337040E050E060E08AE896E00E942C
:1020900037098AE896E00E94990861157105810563
:1020A000910529F06F3F7F4F8F4F9F4F11F480E0D4
:1020B00008958091A20680648093A206282F8091C3
:1020C000A306382F337040E050E060E08AE896E0E5
:1020D0000E9437098CE696E00E9495118091A20635
:1020E00080688093A206282F8091A306382F337032
:1020F00040E050E060E08AE896E00E943709809175
:10210000A2068E7F8093A206282F8091A306382FE7
:10211000337040E050E060E08AE896E00E943709C2
:10212000E0916C06F0916D066085718561307105F6
:1021300011F460E070E08AE896E00E94930E61E09E
:102140008AE896E00E94D7088091AC06807F85607F
:102150008093AC062091AC063091AD064091AE065E
:102160005091AF066CE68AE896E00E9437098091AC
:10217000AF0680618093AF062091AC063091AD062A
:102180004091AE065091AF066CE68AE896E00E9458
:1021900037098FEF80938F062FEF30E040E050E05B
:1021A00061E18AE896E00E94370960E089E00E94D8
:1021B0009E1881E0809371060895CF93DF930E946B
:1021C000010FEC010E94130F8C0F9D1FDF91CF9127
:1021D0000895BF92CF92DF92EF92FF920F931F93D9
:1021E000CF93DF93EC016B018D85811105C0CE018A
:1021F0000E94380D811105C01B861D861C8680E05B
:1022000060C040E060EFCE010E94E50C01E0E12CEF
:10221000B12C11E0CE010E94920CF82ECE010E944A
:10222000920C91E0F91203C08130B1F434C02E2D2C
:1022300030E0F8121BC08B85181738F4FE01E20F4E
:10224000F31F8381802341F402C0811729F0F12C10
:10225000193058F41C8709C0FE01EE0DF11D838171
:10226000802B8383FF24F39409C0B12EFE01E20F7B
:10227000F31F9381802F8095892383836F2DCE0157
:102280000E94B60C1F5F000F11F4E39401E087E099
:102290008E1508F0BFCF113408F4AECFBB86B11055
:1022A00002C081E08D878B81882309F4A5CFDE01F0
:1022B0001396F6012B968D918193CA17DB07D9F7F8
:1022C00081E0DF91CF911F910F91FF90EF90DF9010
:1022D000CF90BF90089545E050E080E090E0A0E40A
:1022E0006FE070E041505109D9F0A0937C0020913B
:1022F0007A00206420937A0020917A0026FDFCCF9A
:1023000020917800E091790030E03E2B2534E1E027
:102310003E0744F3820F931FFB013197F1F7E2CFA1
:10232000959587959595879508958F929F92AF92F1
:10233000BF92CF92DF92EF92FF920F931F93CF93B2
:10234000DF93EC0180EFC82ED12CE12CF12CCE8252
:10235000DF82E886F98685E00E9475188C0186E0A8
:102360000E9475180130110539F4019789F4CE8265
:10237000DF82E886F9860CC0012B51F4019741F405
:1023800080E991E0A0E0B0E08E839F83A887B987C1
:10239000A880B9806E817F81888599850E943A27BF
:1023A0006B017C01F501668970E080E090E00E949D
:1023B000382720E030E048EC52E40E9490269B0150
:1023C000AC01C701B6010E94EF270E9402276B01F2
:1023D0007C018E01025E1F4FF501678970E080E08D
:1023E00090E00E94382720E030E048EC52E40E9460
:1023F00090262DEC3CEC4CE45FE30E94EF276BA7AA
:102400007CA78DA79EA7B60180E090E00E943827A8
:1024100025ED34E045E352E40E94EF2720E030E070
:102420004AE754E40E9490264B015C012AE037ED14
:1024300043EA5CE36FA178A589A59AA50E941F26AF
:10244000A50194010E94EF2726E636E646EA5EE300
:102450000E94902620E030E040E85FE30E941E26C4
:102460000E940927F62EEE8DFF8D8FE00480F58106
:10247000E02D8F1508F161E0C80109952AE037EDDC
:1024800043EA5CE36FA178A589A59AA50E941F265F
:10249000A50194010E94EF272CEE31E548E35EE3AD
:1024A0000E94902620E030E040E85FE30E941E2674
:1024B0000E940927F62E03C060E0C80109959F2DF0
:1024C0009F7189A1807E892B89A328A1382F8AA199
:1024D000482F4F7050E0EE8DFF8D0190F081E02D80
:1024E00060E1C80109956F2D70E080E090E00E94E6
:1024F0003A272BA53CA54DA55EA50E94EF270E947B
:1025000009276F7188A1807E682B68A3262F39A1C7
:102510008AA1482F4F7050E0EE8DFF8D0190F08121
:10252000E02D60E1C801DF91CF911F910F91FF90E5
:10253000EF90DF90CF90BF90AF909F908F900994D5
:10254000CF92DF92EF92FF920F931F93CF93DF937F
:10255000FC01008D118D228D338D401751076207CC
:10256000730728F4041B150B260B370B08C0DB017F
:10257000CA01801B910BA20BB30B8C019D018481BE
:102580009581A681B78180179107A207B307E8F06C
:1025900080819181A281B3816A017B0184179507B3
:1025A000A607B70710F46C017D01EF010E944319E3
:1025B000FE01EB5AFF4F6083718382839383CC8E3D
:1025C000DD8EEE8EFF8E81E001C080E0DF91CF9145
:1025D0001F910F91FF90EF90DF90CF900895CF93D0
:1025E000DF93EC018A85882351F0E881F9818585A4
:1025F0009685A785B089892B8A2B8B2BA1F40E9405
:1026000043196E8B7F8B888F998F1B861C861A8649
:1026100088819981FC01408D518D628D738DDF9190
:10262000CF910C94A0120E9443196E877F87888BEC
:10263000998BE5CFCF93DF93FC0126A1222301F1F3
:10264000EC010E946B119C0126593140293531055E
:10265000D0F02857310923363105C0F028533F4FB9
:1026600023363105B0F0855491408E309240A0F071
:102670001EA28A819B81FC01248521110E94EF12F8
:102680008FEF9FEF0BC081E090E008C082E090E008
:1026900005C083E090E002C080E090E0DF91CF9140
:1026A0000895CF92DF92EF92FF92CF93DF93EC01E8
:1026B0008EA1882309F4E5C1EA81FB818285882304
:1026C00021F08485882309F4DCC10E944319C0905D
:1026D0002307D0902407E0902507F0902607DC011F
:1026E000CB018C199D09AE09BF094497A105B1051D
:1026F00008F4C7C10E9443196B017C016093230752
:10270000709324078093250790932607CE010E949B
:102710001A1340911F075091200760912107709173
:102720002207411551056105710509F0EBC0181626
:1027300019060CF473C0EA81FB818485882321F09B
:10274000CF010E94EF1259C080911B0790911C0786
:10275000A0911D07B0911E070097A105B105E9F0F2
:10276000A7019601281B390B4A0B5B0BDA01C90143
:10277000853F9140A105B10580F481E083871486EF
:10278000158688819981FC01408D518D628D738DF4
:102790004C595F4F6F4F7F4F26C080911707909124
:1027A0001807A0911907B0911A070097A105B10564
:1027B00021F1C81AD90AEA0AFB0A25EFC21621E05C
:1027C000D206E104F104C8F481E0838714861586FB
:1027D00088819981FC01408D518D628D738D4456A5
:1027E0005109610971090E94A0128A819B810E948E
:1027F0005F0F8A819B810E94190F10921F07109210
:102800002007109221071092220710921B071092A6
:102810001C0710921D0710921E0727C081309105DA
:10282000A9F58A819B81FC012385222321F024853F
:10283000222309F4DCC040911B0750911C076091D2
:102840001D0770911E07411551056105710509F0BD
:10285000B8C00E94EF120E94431960931B07709347
:102860001C0780931D0790931E0710921707109264
:1028700018071092190710921A0710921307109256
:1028800014071092150710921607FBC082309105AD
:1028900059F48A819B81FC012385222309F4AFC06E
:1028A00024852111ACC0A3C0039709F0EAC08A8136
:1028B0009B810E94EF1210921B0710921C0710922E
:1028C0001D0710921E0710921707109218071092FA
:1028D000190710921A070E94431960931307709307
:1028E0001407809315079093160781E090E0A0E00D
:1028F000B0E080931F0790932007A0932107B09327
:102900002207BFC0413051056105710509F0B9C00A
:10291000181619060CF4B5C0E881F98180911307E7
:1029200090911407A0911507B0911607C81AD90AFB
:10293000EA0AFB0A29EEC21623E0D206E104F104FA
:1029400040F0DF01A05BBF4F81E08C9381E090E01D
:1029500029C0828593858F3F910509F048F5880F3E
:10296000991F9C012150310922303105B0F084308B
:10297000910599F08830910581F08031910569F0D9
:102980008032910551F08034910539F080389105FD
:1029900021F0811531E0930739F4DF01A05BBF4FCF
:1029A00021E02C93938782878A819B810E945F0F0D
:1029B00010921F07109220071092210710922207F1
:1029C00060C0FC01248521115CC0C41AD50AE60A46
:1029D000F70AF5EFCF16F1E0DF06E104F10408F4A1
:1029E00050C021E0FC012387248725873EC0DF916A
:1029F000CF91FF90EF90DF90CF900C94EF12409129
:102A00001707509118076091190770911A0741151F
:102A1000510561057105A9F40E94EF1210921B0780
:102A200010921C0710921D0710921E070E94431956
:102A300060931707709318078093190790931A07EC
:102A40001CCFFC01248521111CC0C41AD50AE60A3A
:102A5000F70AF5EFCF16F1E0DF06E104F10488F0A4
:102A600021E0FC012387248715860E945F0F8A815D
:102A70009B81DF91CF91FF90EF90DF90CF900C94EE
:102A8000190FDF91CF91FF90EF90DF90CF900895D5
:102A9000CF92DF92EF92FF920F931F93CF93DF932A
:102AA000CDB7DEB760970FB6F894DEBF0FBECDBFCF
:102AB0008C01F62E0E944319F801EF5AFF4F6083F4
:102AC00071838283938331971082359610821182AD
:102AD00012821382F8014481558166817781808159
:102AE0009181A281B381840F951FA61FB71F4585D1
:102AF000568567857089840F951FA61FB71F41896A
:102B0000528963897489840F951FA61FB71F408D52
:102B1000518D628D738D840F951FA61FB71F24855D
:102B2000820F911DA11DB11D2689820F911DA11D2E
:102B3000B11D2789820F911DA11DB11D2589820F0D
:102B4000911DA11DB11D2085820F911DA11DB11DDB
:102B50002285820F911DA11DB11D80A391A3A2A367
:102B6000B3A344E050E060E070E0C8010E94F524A7
:102B700044E050E064E070E0C80104960E94F5244F
:102B800042E050E068E070E0C80108960E94F52439
:102B900042E050E06AE070E0C8010A960E94F52425
:102BA00041E050E06CE070E0C8010C960E94F52412
:102BB00044E050E06DE070E0C8010D960E94F524FD
:102BC00044E050E061E170E0C80141960E94F524C4
:102BD00041E050E065E170E0C80145960E94F524AF
:102BE00041E050E066E170E0C80146960E94F5249D
:102BF00041E050E067E170E0C80147960E94F5248B
:102C0000C801825B9F4F6C01F1106CC0FC01E08039
:102C1000F18044E050E0B701CE010D960E94E5241A
:102C2000B7016C5F7F4F44E050E0CE0109960E94EF
:102C3000E524B701685F7F4F44E050E0CE01059680
:102C40000E94E524F801408D518D628D738D8D8534
:102C50009E85AF85B889481759076A077B07D1F465
:102C6000448D558D668D778D89859A85AB85BC851C
:102C7000481759076A077B0769F440A151A162A16F
:102C800073A18D819E81AF81B885481759076A0766
:102C90007B0781F1F601608171817801F8E4EF0E24
:102CA000F11CF70180819181680F791F64507109CF
:102CB00019821A821B821C8244E050E0CE010196E8
:102CC0000E94F524F70140815181F6012081318174
:102CD000CA01820F931F91838083840F951F8130D7
:102CE000944044F0F801E65BFF4F80819181F6014A
:102CF00091838083F601C080D18044E050E0B6012A
:102D0000C80148960E94F524B6016C5F7F4F44E0ED
:102D100050E0C8014C960E94F524B601685F7F4FD1
:102D200044E050E0C80180960E94F52460960FB6FA
:102D3000F894DEBF0FBECDBFDF91CF911F910F91F1
:102D4000FF90EF90DF90CF90089520919D053091F6
:102D50009E052817390771F49091710780917007CB
:102D6000981741F0E0917107F0E0E05DF84F808145
:102D700090E008958FEF9FEF089508951F93CF93EC
:102D8000DF93DC015C968D919C915D97009739F4FF
:102D900021E030E013963C932E9312973BC051965E
:102DA000ED91FC91529750962C915097322F30957F
:102DB0001FB75E964C915E97742F727041FD6095BF
:102DC000F8944081772311F0422B01C043234083C4
:102DD000EC012197F1F748E0508160FF02C0522BCF
:102DE00001C053235083EC012197F1F766954150C0
:102DF00099F78081772319F08323808302C0282BE1
:102E000020831FBF5C968D919C915D970197F1F790
:102E100081E090E0DF91CF911F91089520919D0571
:102E200030919E052817390771F480917007209121
:102E3000710790E0805C9F4F821B910960E470E015
:102E40000E949A25089580E090E0089520919D05C4
:102E500030919E0528173907B9F490917107809138
:102E60007007981789F0E0917107F0E0E05DF84F86
:102E700080812091710730E02F5F3F4F2F73332700
:102E80002093710790E008958FEF9FEF08958330AE
:102E900081F028F4813099F08230A1F008958730D4
:102EA000A9F08830B9F08430D1F4809180008F7D12
:102EB00003C0809180008F7780938000089584B54F
:102EC0008F7702C084B58F7D84BD08958091B00056
:102ED0008F7703C08091B0008F7D8093B0000895FC
:102EE0003FB7F89480912C0790912D07A0912E0761
:102EF000B0912F0726B5A89B05C02F3F19F001966A
:102F0000A11DB11D3FBFBA2FA92F982F8827820F6F
:102F1000911DA11DB11DBC01CD0142E0660F771FBF
:102F2000881F991F4A95D1F70895DC019F962C912F
:102F30009F97222339F092966D917D918D919C916E
:102F400095970895DC01ED91FC910280F381E02DCD
:102F50006CE609940F931F93CF93782FFC0180E0C8
:102F6000C7E09E2F971B9617C8F4519148E0282F71
:102F700030E08901000F012F001F110BA52FA17058
:102F8000B0E00A171B0729F0C901880F991F8C2789
:102F900001C0880F5695415051F7E3CFCF911F9153
:102FA0000F9108951F920F920FB60F9211242F9335
:102FB0003F934F935F936F937F938F939F93AF93C1
:102FC000BF93EF93FF93E0919D05F0919E0530979D
:102FD00009F451C0968DA685B785858591FF04C0FB
:102FE0009C91892329F447C09C91892309F043C00F
:102FF000A389B4899C918589809589238C9386893E
:1030000097890197F1F7608D718DA685B7855585F4
:1030100038E020E0CB010197F1F7822F90E0959501
:103020008795282F4C91452309F02068315091F75E
:10303000868D81FD20958091700790E001968F73B9
:10304000992730917107381749F0A0917007B0E0C7
:10305000A05DB84F2C938093700703C0868D81606C
:10306000868F828D938D0197F1F7A389B4899C9106
:103070008589892B8C93FF91EF91BF91AF919F919F
:103080008F917F916F915F914F913F912F910F9011
:103090000FBE0F901F901895CF93DF93EC018A8D90
:1030A0009B8D892BF1F080919D0590919E05C8170D
:1030B000D907B9F0009711F00E946C0F8E8D8E7FAA
:1030C0008E8F1092700710927107D0939E05C09357
:1030D0009D05EB89FC8990818D89892B808381E016
:1030E00001C080E0DF91CF910895CF93DF93282F27
:1030F00030E0F901E853FE4F8491F901E655FE4FA7
:10310000D491F901EA56FE4FC491CC2391F081117C
:103110000E944717EC2FF0E0EE0FFF1FEE57FE4F17
:10312000A591B491EC91ED2381E090E021F480E051
:1031300002C080E090E0DF91CF9108951F93CF937C
:10314000DF93282F30E0F901E853FE4F8491F90115
:10315000E655FE4FD491F901EA56FE4FC491CC23B7
:10316000C1F0162F81110E944717EC2FF0E0EE0FEF
:10317000FF1FE457FE4FA591B4919FB7F89411112A
:1031800004C08C91D095D82302C0EC91DE2BDC9347
:103190009FBFDF91CF911F910895CF93DF9390E070
:1031A000FC01E655FE4F2491FC01EA56FE4F849146
:1031B000882361F190E0880F991FFC01E254FE4FD3
:1031C000C591D491FC01E457FE4FA591B4916111D2
:1031D00009C09FB7F8948881209582238883EC9159
:1031E0002E230BC0623061F49FB7F8948881322F90
:1031F000309583238883EC912E2B2C939FBF06C0A0
:103200008FB7F894E8812E2B28838FBFDF91CF9161
:1032100008958F929F92AF92BF92CF92DF92EF92DA
:10322000FF926B017C010E9470174B015C01C1147D
:10323000D104E104F104F1F00E947017DC01CB012C
:1032400088199909AA09BB09883E9340A105B105CF
:1032500070F321E0C21AD108E108F10888EE880E67
:1032600083E0981EA11CB11CC114D104E104F10437
:1032700019F7DDCFFF90EF90DF90CF90BF90AF9028
:103280009F908F9008952FB7F894609128077091C0
:10329000290780912A0790912B072FBF08951F922D
:1032A0000F920FB60F9211242F933F938F939F93FA
:1032B000AF93BF938091280790912907A0912A0787
:1032C000B0912B073091270723E0230F2D3720F4EF
:1032D0000196A11DB11D05C026E8230F0296A11D70
:1032E000B11D209327078093280790932907A09367
:1032F0002A07B0932B0780912C0790912D07A0915E
:103300002E07B0912F070196A11DB11D80932C07A8
:1033100090932D07A0932E07B0932F07BF91AF91E5
:103320009F918F913F912F910F900FBE0F901F9003
:1033300018950F931F93CF938B01DC011696ED9197
:10334000FC911797138615861486DF011B9633961A
:103350001E92EA17FB07E1F7B801FC01868197810D
:103360000E94E910C82F882341F067E0C8010E943D
:103370007A0CD80117969C918913C0E08C2FCF91BD
:103380001F910F9108950F931F93CF93DF93CDB7A4
:10339000DEB728970FB6F894DEBF0FBECDBF8C0105
:1033A000BE016F5F7F4F0E949919811105C060E0D7
:1033B00070E08EEF92EC16C0BE016F5F7F4FC801C8
:1033C0000E94BC0D813824EE92078CF3BC01990F4A
:1033D000880B990B0E943A2720E030E040E05CE344
:1033E0000E94EF2728960FB6F894DEBF0FBECDBF20
:1033F000DF91CF911F910F9108950F931F93CF935A
:10340000DF93CDB7DEB729970FB6F894DEBF0FBEB6
:10341000CDBF8C0180915406909155060E94380DC5
:10342000882319F1AE014F5F5F4FB8018EE496E03B
:103430000E946F0D8823C9F068E0CE0101960E94BA
:103440007A0C9985891311C08D818F3361F020F436
:103450008F3159F489E00CC08F3519F08F3739F06E
:1034600004C08BE005C08AE003C080E001C08CE0AE
:1034700029960FB6F894DEBF0FBECDBFDF91CF9176
:103480001F910F910895CF93DF93CDB7DEB72897A3
:103490000FB6F894DEBF0FBECDBF789484B58260BE
:1034A00084BD84B5816084BD85B5826085BD85B5E8
:1034B000816085BD80916E00816080936E00109266
:1034C00081008091810082608093810080918100E1
:1034D0008160809381008091800081608093800072
:1034E0008091B10084608093B1008091B0008160D0
:1034F0008093B00080917A00846080937A008091FC
:103500007A00826080937A0080917A008160809353
:103510007A0080917A00806880937A001092C100CE
:10352000E091AF05F091B00582E08083E091AB05BA
:10353000F091AC051082E091AD05F091AE0580E10F
:1035400080831092B705E091B305F091B40586E051
:103550008083E091B105F091B20580818061808324
:10356000E091B105F091B205808188608083E0919F
:10357000B105F091B205808180688083E091B1054A
:10358000F091B20580818F7D808344E050E060E05F
:1035900070E08AEB96E00E94E52444E050E064E0AD
:1035A00070E08EEB96E00E94E52442E050E068E097
:1035B00070E082EC96E00E94E52442E050E06AE090
:1035C00070E084EC96E00E94E52441E050E06CE07D
:1035D00070E086EC96E00E94E52444E050E06DE067
:1035E00070E087EC96E00E94E52444E050E061E161
:1035F00070E08BEC96E00E94E52441E050E065E14C
:1036000070E08FEC96E00E94E52441E050E066E136
:1036100070E080ED96E00E94E52441E050E067E133
:1036200070E081ED96E00E94E524E12CF12C08E1A8
:1036300010E08091060790910707E816F9060CF054
:10364000A1C044E050E0B80182ED96E00E94E5247C
:10365000B8016C5F7F4F44E050E086ED96E00E9439
:10366000E524B801685F7F4F44E050E08AED96E0C2
:103670000E94E524045F1F4F4091BE065091BF0693
:103680006091C0067091C1068091BA069091BB0608
:10369000A091BC06B091BD06840F951FA61FB71F51
:1036A0004091C7065091C8066091C9067091CA063C
:1036B000840F951FA61FB71F4091CB065091CC06D3
:1036C0006091CD067091CE06840F951FA61FB71F7F
:1036D0004091D2065091D3066091D4067091D506E0
:1036E000840F951FA61FB71F2091C606820F911D3C
:1036F000A11DB11D2091D006820F911DA11DB11DEC
:103700002091D106820F911DA11DB11D2091CF06E0
:10371000820F911DA11DB11D4091C2065091C3069B
:103720005527052E000C660B770B840F951FA61FDF
:10373000B71F4091C4065091C5065527052E000CB1
:10374000660B770B840F951FA61FB71F4091DA06F3
:103750005091DB066091DC067091DD064817590731
:103760006A077B0759F48091020790910307081BB1
:10377000190B109309070093080712C02FEFE21AE4
:10378000F20A57CF84E2EEEDF6E0AAEBB6E0019044
:103790000D928A95E1F761E08AEB96E00E94481568
:1037A0000E94431960930B0770930C0780930D07D9
:1037B00090930E070E94820F8AEB96E090933D064D
:1037C00080933C068CE696E090933F0680933E06FD
:1037D000E0915406F0915506138615861486DF0194
:1037E0001B9633961E92EA17FB07E1F710925206DA
:1037F0001092530601E0BE016F5F7F4F8091540627
:10380000909155060E94E910882309F465C067E08D
:10381000CE0101960E947A0C98858913ECCF809195
:103820004E06811127C080915406909155060E9442
:10383000380DBE016F5F7F4F809154069091550601
:103840000E94190D40E064EB80915406909155065A
:103850000E94E50C80915406909155060E94920CAE
:10386000182F80915406909155060E94380D11230F
:1038700009F4AFC210914F068981803109F4B2C2B8
:10388000CE0101960E94FD19811718F480914F0610
:1038900009C08981803111F48CE004C0CE01019609
:1038A0000E94FD1980934F06809152068F5F80938E
:1038B00052068981883209F48FC238F4803109F4C4
:1038C0008BC2823209F097CF87C28B3309F484C24E
:1038D000823409F090CF80C28AEB96E09093220563
:1038E000809321058CE696E0909324058093230530
:1038F0008CE396E0909326058093250580E295E081
:10390000909328058093270581E295E090938D049C
:1039100080938C0401E011E08091710681110DC04B
:103920000E94820F811109C00E94190164EF71E0A9
:1039300080E090E00E94091949C2809176068823B0
:1039400009F4CEC00E944319C0907E06D0907F0635
:10395000E0908006F0908106DC01CB018C199D0976
:10396000AE09BF09C297A105B10508F0AFC08091AB
:1039700078068823C1F02091790680916C06909199
:103980006D06FC01408D518D628D738D222329F0CF
:103990004F5F5F4F6F4F7F4F04C041505109610926
:1039A00071090E94A012E0916C06F0916D06848D61
:1039B000958DA68DB78D408D518D628D738D841739
:1039C0009507A607B707F8F4658982E00E949E185C
:1039D00061E083E00E949E1860E083E00E949E18F0
:1039E000A0906C06B0906D06F501C08CD18CE28C75
:1039F000F38C80819181A281B381F1E0CF1AD1084B
:103A0000E108F10825C0481759076A077B0708F045
:103A100043C06589602782E00E949E1861E083E0D0
:103A20000E949E1860E083E00E949E18A0906C06A1
:103A3000B0906D06F501C08CD18CE28CF38C808146
:103A40009181A281B381FFEFCF1ADF0AEF0AFF0A4B
:103A50008C159D05AE05BF0510F46C017D010E941B
:103A60004319F501EB5AFF4F60837183828393837F
:103A7000F501C08ED18EE28EF38E809186069091F4
:103A800087068230910560F0880F991F880F991F73
:103A900005970197F1F704C08CE696E00E94EF12BB
:103AA00080917806882309F44DCF80916E0690911D
:103AB0006F060E941A13181619060CF443CF809152
:103AC0006E0690916F060E9451133CCF0E944319DD
:103AD00060937E0670937F068093800690938106A4
:103AE0000E94190180917606811170C1C0900B0768
:103AF000D0900C07E0900D07F0900E07F8E8CF0E7D
:103B0000F3E1DF1EE11CF11C0E944319C616D70623
:103B1000E806F906A0F480910A07882329F060E0FE
:103B20008AEB96E00E9448150E94431960930B07A8
:103B300070930C0780930D0790930E0725C0C090DB
:103B40000F07D0901007E0901107F0901207C114F2
:103B5000D104E104F104C1F08091CB069091CC0630
:103B6000A091CD06B091CE06C80ED91EEA1EFB1E4E
:103B70000E944319C616D706E806F90628F460E045
:103B80008AEB96E00E9448150E9443196B017C0164
:103B90008091910590919205A0919305B091940523
:103BA000B701A601481B590B6A0B7B0B4D325140E4
:103BB0006105710520F4892B8A2B8B2BB9F4C092F7
:103BC0009105D0929205E0929305F0929405809130
:103BD000620681110BC08CE396E00E946B11865443
:103BE00091408C30924010F41093620680918D05C4
:103BF00090918E05A0918F05B0919005B701A60117
:103C0000481B590B6A0B7B0B493853416105710501
:103C100020F4892B8A2B8B2B41F5C0928D05D092F5
:103C20008E05E0928F05F0929005809163068111D8
:103C30001CC08EE496E00E94230E8EE496E00E9463
:103C4000C3196B017C0120E030E04EEF52EC0E9482
:103C50008B26882351F0C0926406D0926506E092CC
:103C60006606F0926706109363068CE396E00E9466
:103C7000511380916306882309F4A8C00E94431958
:103C8000C0909905D0909A05E0909B05F0909C0516
:103C9000DC01CB018C199D09AE09BF09883893411D
:103CA000A105B10508F492C00E94431960939905DB
:103CB00070939A0580939B0590939C058EE496E003
:103CC0000E94230E8EE496E00E94C3196B017C01D2
:103CD000609395057093960580939705909398054A
:103CE000BE016F5F7F4F8EE496E00E9499198111AB
:103CF00009C08AE9882E89E9982E84E4A82E83ECED
:103D0000B82E1FC0BE016F5F7F4F8EE496E00E9409
:103D1000BC0D8138E4EE9E0764F3BC01990F880B5B
:103D2000990B0E943A2726E636E646E65CE30E94B7
:103D3000EF2720E030E040E052E40E941F264B01D4
:103D40005C0120E030E04EEF52ECC701B6010E946A
:103D50008B26882329F120E030E040E752E4C701B8
:103D6000B6010E948B2687FF1BC020E030E040E7B1
:103D700052ECC701B6010E94EA2718168CF4C092D3
:103D80006406D0926506E0926606F092670680921D
:103D9000680690926906A0926A06B0926B0616C0F9
:103DA0001092630680E090E0AEEFB2EC8093640680
:103DB00090936506A0936606B093670680936806A5
:103DC00090936906A0936A06B0936B060E948F08D1
:103DD000A3CD00934E064ECD809153068F5F809306
:103DE000530609CD1D3008F051CD56CDCF92DF924C
:103DF000EF92FF92CF93DF931092A2051092A1054C
:103E000028EEC22E23E0D22EE12CF12CC092A30585
:103E1000D092A405E092A505F092A60588E591E070
:103E20009093A00580939F0585EC90E09093AC055E
:103E30008093AB0584EC90E09093AE058093AD0544
:103E400080EC90E09093B0058093AF0581EC90E01A
:103E50009093B2058093B10582EC90E09093B40505
:103E60008093B30586EC90E09093B6058093B505FA
:103E70001092B8051092B9051092BA051092BB05C0
:103E800084E2ECE0F1E0AAEBB6E001900D928A95B5
:103E9000E1F784E2E0E3F1E0AEEDB6E001900D92EF
:103EA0008A95E1F78CE090E09093030780930207F6
:103EB00088E190E0909305078093040725E530E0C2
:103EC000309307072093060790930907809308070C
:103ED00010920F07109210071092110710921207FC
:103EE000109270061092710610927E0610927F0654
:103EF000109280061092810610928206109283061C
:103F0000109284061092850610928C0610928D06EF
:103F100080918E06807F80938E0610928F0610927D
:103F200090061092910680919206807F809392066F
:103F30008EEA97E4A1EEBDE38093930690939406F6
:103F4000A0939506B093960640E050E060E07FE3D2
:103F500040939706509398066093990670939A063B
:103F60002CE731E030938B0620938A0610929C0652
:103F700010929B0680939D0690939E06A0939F06A9
:103F8000B093A0061092A1061092A2068091A306FB
:103F90008C7F8093A3061092A4068091A506807F53
:103FA0008093A5061092A7061092A6061092A80666
:103FB0001092A9061092AA061092AB061092AC06B7
:103FC0001092AD061092AE061092AF061092B00697
:103FD0001092B1061092B2061092B3061092B50676
:103FE0001092B4061092B7061092B6061092B80658
:103FF0001092B9068FE190E00E946128EC011B82CB
:104000001A82CC82DD82EE82FF828AE691E0998379
:1040100088831F8A1E8A198E188E1B8E1A8E1D8EFB
:104020001C8E6E8D6E7F6D7F6E8F6695617081E0E8
:1040300068278CE00E949E1861E08CE00E94CD18F9
:10404000E6EBF1E0E491E88BE2EAF1E0E491F0E004
:10405000EE0FFF1FE457FE4F859194919A8B898B49
:1040600060E08BE00E94CD188E8D81FD04C061E080
:104070008BE00E949E188BE08C87E5EBF1E0E491E9
:10408000ED87E1EAF1E0E491F0E0EE0FFF1FEE577B
:10409000FE4F859194919F878E87D093B706C093EA
:1040A000B6068091A20681608D7F8B7F8093A206E9
:1040B0008091A30681608093A30680918E06807F05
:1040C000816080938E0684E180938F0683E590E083
:1040D000A0E0B0E18093AC069093AD06A093AE064D
:1040E000B093AF0684E290E0ADE0B1EC8093B0060F
:1040F0009093B106A093B206B093B30660E08EE051
:104100000E94CD18E8EBF1E0E491E0934006E4EA88
:10411000F1E0E491F0E0EE0FFF1FEE57FE4F8591C6
:104120009491909342068093410610924B06109210
:104130004D0610924C06EBE4F6E083E496E0129212
:104140008E179F07E1F780E496E0909355068093E1
:104150005406109252061092530610924E0689E0B1
:1041600080934F0681E08093500680935106109211
:1041700061061092600680E090E0AEEFB2EC8093B2
:10418000640690936506A0936606B09367068093D5
:10419000680690936906A0936A06B0936B06DF9158
:1041A000CF91FF90EF90DF90CF9008958F929F92E4
:1041B000AF92BF920F931F93CF93DF93CDB7DEB72C
:1041C000A1970FB6F894DEBF0FBECDBF19A2423043
:1041D00008F44AE08E010F5D1F4F842E912CA12C14
:1041E000B12CA50194010E942725E62FB901CA012F
:1041F00001501109EA3014F4E05D01C0E95CD80116
:10420000EC93232B242B252B61F7C8010E94010F6F
:10421000A1960FB6F894DEBF0FBECDBFDF91CF9150
:104220001F910F91BF90AF909F908F900895CF9363
:10423000DF934AE00E94D620EC010E94130F8C0FFE
:104240009D1FDF91CF910895CF93DF93682F70E08A
:1042500080E090E04AE00E94D620EC010E94130F1B
:104260008C0F9D1FDF91CF910895CF92DF92EF9237
:10427000FF92CF93DF936B017C016DE28FE995E0B4
:104280000E94C807EC0166277727CB016C197D09CE
:104290008E099F094AE00E94D6208C0F9D1FDF9156
:1042A000CF91FF90EF90DF90CF900895CF93DF9361
:1042B000BC01990F880B990B97FF03C00E94352111
:1042C00003C04AE00E94D620EC010E94130F8C0F1D
:1042D0009D1FDF91CF910895EF920F931F93CF937E
:1042E000DF93E80147FD02C034E001C034E1042E51
:1042F000000C550B57FF03C0519541955109E32E12
:10430000022F242FAE010E94B022CE01DF91CF9167
:104310001F910F91EF900895A0E0B0E0E2E9F1E283
:104320000C9455255C016B017A016115710519F03A
:10433000FB0191838083E114F10429F0C701029706
:10434000839708F0C9C0E5012196F5011081812FFE
:1043500090E00E949F22892B11F05E01F4CF1D3264
:1043600029F42196F501118101E007C01B3221F4E7
:10437000E5012296F501118100E0E114F104B1F0AC
:10438000F0E1EF16F10429F4B0C010E3E114F104F8
:1043900001F12AE0E216F104B1F180E1E816F1043E
:1043A00071F0E8E0EE16F104F1F413C0103341F5BA
:1043B00088818F7D883549F7198122960260F0E166
:1043C000EF2EF12C88248A94982CA82CAFE0BA2EDA
:1043D00020C078E0E72EF12C88248A94982CA82C11
:1043E000EFE1BE2E16C06FEF7FEFCB0197010F2CD0
:1043F000000C440B550B0E94272549015A0109C0A6
:104400008AE0E82EF12C69E9862E982CA82C69E127
:10441000B62E40E060E070E0CB0127010F2C000CCD
:1044200066087708FE0150ED352E310E29E0231580
:1044300070F42FEB210F2A3118F439EC332E06C01B
:104440002FE9210F2A3130F529EA322E310E232DA2
:1044500030E02E153F05F4F44F3FC9F0861697065D
:10446000A806B90688F0A30192010E941725232D02
:1044700030E040E050E0620F731F841F951F621709
:1044800073078407950710F44FEF01C041E02196B0
:104490001081C8CFC114D10451F0442311F02197E9
:1044A00003C001FF04C02297F601D183C08300FF3F
:1044B00007C090958095709561957F4F8F4F9F4F66
:1044C0004F3F79F482E290E09093730780937207F4
:1044D0003FEF2FEF9FEF0DC040E030E020E090E095
:1044E00008C0462F372F282F04C0103309F067CF9C
:1044F0005FCF642F732F822FCDB7DEB7E1E10C942D
:104500007125FC0188279927E89421912032E9F34D
:10451000293010F02E30C8F32B3241F02D3239F40F
:10452000689404C00E94A822820F911D21912053FB
:104530002A30C0F31EF4909581959F4F08959111F4
:104540000C94E224803219F089508550C8F7089500
:104550007AE0979F902D879F802D910D11240895CB
:10456000A9E0B0E0E6EBF2E20C945A256A01122FC2
:10457000B02E2BE3201720F0FF24F394F00E02C09E
:104580002CE3F22E0F2D27E0AE014F5F5F4F0E940C
:104590000A24BC014981842F8970813031F0E1FC0B
:1045A00006C0E0FE06C090E205C09DE203C09BE2AB
:1045B00001C090E05E2D507143FF3CC0911102C0DC
:1045C00083E001C084E0811718F4212F281B01C06B
:1045D00020E051110BC0F601822F30E2882319F040
:1045E00031938150FBCFC20ED11C20E0992329F0DA
:1045F000D6019C93F60131966F01C6010396E2FE47
:104600000AC03EE4D6013C9341E411964C931197C5
:1046100012963C9306C03EE6F601308341E64183A4
:104620003283FC01322F40E2332309F442C041932C
:104630003150FACF42FF44C0911102C083E001C063
:1046400084E0811718F4212F281B01C020E05111AC
:104650000BC0F601822F30E2882319F0319381508C
:10466000FBCFC20ED11C20E0992329F0D6019C93E8
:10467000F60131966F01C6010396E2FE0BC039E4E4
:10468000D6013C933EE411963C93119736E4129682
:104690003C9307C039E6F60130833EE6318336E6C7
:1046A0003283FC01322F40E2332319F04193315021
:1046B000FBCFFC01E20FF11D10828EEF9FEFA6C031
:1046C00021E030E0911102C020E030E0161617061C
:1046D0001CF4FB01319602C0E1E0F0E02E0F3F1F19
:1046E000BB2021F0EB2DF0E0319602C0E0E0F0E0DD
:1046F0002E0F3F1FE12FF0E02E173F071CF4121B77
:10470000212F01C020E08E2D887159F4F601822FEF
:1047100030E2882319F031938150FBCFC20ED11CB7
:1047200020E0992329F0D6019C93F60131966F0180
:1047300051110BC0F601822F90E3882319F0919359
:104740008150FBCFC20ED11C20E00F2D060F9A81A5
:10475000342F307144FF03C0913309F40150101617
:1047600024F4093018F008E001C001E0AB0177FF44
:1047700002C040E050E0FB01E41BF50BA1E0B0E01B
:10478000AC0FBD1FEA0FFB1F8EE2A82E4B01801A53
:1047900091080B2D10E01195019511094F3FBFEFC6
:1047A0005B0721F4D601AC9211966D016417750771
:1047B0002CF08416950614F4818101C080E34150E9
:1047C00051093196D60111967D014017510724F009
:1047D000D6018C936701E2CF6417750739F49633DD
:1047E00020F4953319F4311101C081E3F60180837F
:1047F000F701822F90E2882319F091938150FBCF2B
:10480000F701E20FF11D108280E090E02996ECE0C4
:104810000C947625283008F027E03327DA01990F29
:10482000311D87FD916000966105710539F4326094
:104830002E5F3D9330E32A95E1F708959F3F30F0D6
:1048400080387105610509F03C5F3C5F3D93913014
:1048500008F08068911DDF93CF931F930F93FF9211
:10486000EF92192F987F9695E92F96959695E90FD7
:10487000FF27EE53FF4F99273327EE24FF24A7018C
:10488000E70105900894079428F4360FE71EF81EF8
:10489000491F511D660F771F881F991F0694A1F7A6
:1048A0000590079428F4E70EF81E491F561FC11DF6
:1048B000770F881F991F661F0694A1F7059007942C
:1048C00028F4F80E491F561FC71FD11D880F991FC6
:1048D000661F771F0694A1F70590079420F4490FEF
:1048E000561FC71FD81F990F661F771F881F069472
:1048F000A9F784911095177041F0D695C7955795F3
:104900004795F794E7941A95C1F7E8E6F0E06894C4
:104910001590159135916591959105907FE273956C
:10492000E118F10A430B560BC90BD009C0F7E10C93
:10493000F11E431F561FC91FD01D7EF4703311F4A2
:104940008A95E6CFE894015030F0080F0AF400276A
:10495000021708F4202F2395022F7A3328F079E3E9
:104960007D932A95E9F710C07D932A9589F60694E0
:1049700097956795379517951794E118F10A430BAA
:10498000560BC90BD00998F023957E9173957A3315
:1049900008F070E37C932013B8F77E9170617D93EB
:1049A00030F0839571E37D9370E32A95E1F711244C
:1049B000EF90FF900F911F91CF91DF91992787FD85
:1049C00090950895992788270895DC01CB01FC0173
:1049D000F999FECF06C0F2BDE1BDF89A319600B458
:1049E0000D9241505040B8F70895DC01A40FB51F57
:1049F0004150504048F0CB01840F951F2E910E94EA
:104A0000062541505040D0F70895262FF999FECF42
:104A100092BD81BDF89A019700B4021639F01FBA11
:104A200020BD0FB6F894FA9AF99A0FBE0895DB01EB
:104A30008F939F930E944925BF91AF91A29F800DB4
:104A4000911DA39F900DB29F900D11240895A1E296
:104A50001A2EAA1BBB1BFD010DC0AA1FBB1FEE1FF8
:104A6000FF1FA217B307E407F50720F0A21BB30B43
:104A7000E40BF50B661F771F881F991F1A9469F7BF
:104A800060957095809590959B01AC01BD01CF011B
:104A900008950E948B25A59F900DB49F900DA49F13
:104AA000800D911D112408952F923F924F925F9295
:104AB0006F927F928F929F92AF92BF92CF92DF922E
:104AC000EF92FF920F931F93CF93DF93CDB7DEB793
:104AD000CA1BDB0B0FB6F894DEBF0FBECDBF099427
:104AE0002A88398848885F846E847D848C849B847E
:104AF000AA84B984C884DF80EE80FD800C811B818C
:104B0000AA81B981CE0FD11D0FB6F894DEBF0FBEBA
:104B1000CDBFED010895A29FB001B39FC001A39F37
:104B2000700D811D1124911DB29F700D811D1124E6
:104B3000911D089597FB072E16F4009407D077FD7A
:104B400009D00E94042607FC05D03EF4909581957B
:104B50009F4F0895709561957F4F0895052E97FB9F
:104B60001EF400940E94C52557FD07D00E942725FA
:104B700007FC03D04EF40C94C52550954095309514
:104B800021953F4F4F4F5F4F0895909580957095B9
:104B900061957F4F8F4F9F4F08950F93083090F08E
:104BA000982F872F762F652F542F432F322F2227B0
:104BB0000850F4CF220F331F441F551F661F771F65
:104BC000881F991F0A95B2F70F91089597FB10F867
:104BD000169400080F93083098F00850232F342FB4
:104BE000452F562F672F782F892F902DF4CF0594BE
:104BF0009795879577956795579547953795279515
:104C00000A95AAF70F910895AA1BBB1B51E107C093
:104C1000AA1FBB1FA617B70710F0A61BB70B881F4C
:104C2000991F5A95A9F780959095BC01CD010895DB
:104C3000EE0FFF1F0590F491E02D09945058BB270B
:104C4000AA270E9436260C94B0270E94A22738F08B
:104C50000E94A92720F039F49F3F19F426F40C9400
:104C60009F270EF4E095E7FB0C949927E92F0E940B
:104C7000C12758F3BA17620773078407950720F016
:104C800079F4A6F50C94E3270EF4E0950B2EBA2FD9
:104C9000A02D0B01B90190010C01CA01A001112442
:104CA000FF27591B99F0593F50F4503E68F11A16EE
:104CB000F040A22F232F342F4427585FF3CF46957F
:104CC00037952795A795F0405395C9F77EF41F16A1
:104CD000BA0B620B730B840BBAF09150A1F0FF0F6B
:104CE000BB1F661F771F881FC2F70EC0BA0F621F57
:104CF000731F841F48F4879577956795B795F79547
:104D00009E3F08F0B0CF9395880F08F09927EE0FDB
:104D10009795879508950E94752708F481E0089576
:104D20000E94A4260C94B0270E94A92758F00E9444
:104D3000A22740F029F45F3F29F00C9499275111E4
:104D40000C94E4270C949F270E94C12768F39923B1
:104D5000B1F3552391F3951B550BBB27AA27621777
:104D60007307840738F09F5F5F4F220F331F441F84
:104D7000AA1FA9F335D00E2E3AF0E0E832D09150B8
:104D80005040E695001CCAF72BD0FE2F29D0660FA5
:104D9000771F881FBB1F261737074807AB07B0E8E8
:104DA00009F0BB0B802DBF01FF2793585F4F3AF0EE
:104DB0009E3F510578F00C9499270C94E4275F3FAF
:104DC000E4F3983ED4F3869577956795B795F79574
:104DD0009F5FC9F7880F911D9695879597F908955C
:104DE000E1E0660F771F881FBB1F621773078407F8
:104DF000BA0720F0621B730B840BBA0BEE1F88F707
:104E0000E09508950E9409276894B1110C94E42755
:104E100008950E94C92788F09F5798F0B92F9927C5
:104E2000B751B0F0E1F0660F771F881F991F1AF095
:104E3000BA95C9F714C0B13091F00E94E327B1E0F0
:104E400008950C94E327672F782F8827B85F39F0EF
:104E5000B93FCCF3869577956795B395D9F73EF42E
:104E600090958095709561957F4F8F4F9F4F0895D6
:104E7000E89409C097FB3EF49095809570956195F4
:104E80007F4F8F4F9F4F9923A9F0F92F96E9BB27AA
:104E90009395F695879577956795B795F111F8CF26
:104EA000FAF4BB0F11F460FF1BC06F5F7F4F8F4F91
:104EB0009F4F16C0882311F096E911C0772321F087
:104EC0009EE8872F762F05C0662371F096E8862F1F
:104ED00070E060E02AF09A95660F771F881FDAF776
:104EE000880F9695879597F90895990F0008550FA3
:104EF000AA0BE0E8FEEF16161706E807F907C0F060
:104F000012161306E407F50798F0621B730B840B67
:104F1000950B39F40A2661F0232B242B252B21F441
:104F200008950A2609F4A140A6958FEF811D811DE1
:104F3000089597F99F6780E870E060E008959FEF1B
:104F400080EC089500240A94161617061806090620
:104F5000089500240A9412161306140605060895EF
:104F6000092E0394000C11F4882352F0BB0F40F477
:104F7000BF2B11F460FF04C06F5F7F4F8F4F9F4FB7
:104F8000089557FD9058440F551F59F05F3F71F039
:104F90004795880F97FB991F61F09F3F79F08795A0
:104FA0000895121613061406551FF2CF4695F1DF29
:104FB00008C0161617061806991FF1CF86957105B9
:104FC000610508940895E894BB2766277727CB01ED
:104FD00097F908950E94752708F48FEF08950E94AD
:104FE00002280C94B0270E94A22738F00E94A9271B
:104FF00020F0952311F00C9499270C949F271124ED
:105000000C94E4270E94C12770F3959FC1F3950F7C
:1050100050E0551F629FF001729FBB27F00DB11D3C
:10502000639FAA27F00DB11DAA1F649F6627B00DCC
:10503000A11D661F829F2227B00DA11D621F739FB5
:10504000B00DA11D621F839FA00D611D221F749FC3
:105050003327A00D611D231F849F600D211D822F0A
:10506000762F6A2F11249F5750409AF0F1F0882331
:105070004AF0EE0FFF1FBB1F661F771F881F91505E
:105080005040A9F79E3F510580F00C9499270C944D
:10509000E4275F3FE4F3983ED4F3869577956795D0
:1050A000B795F795E7959F5FC1F7FE2B880F911D88
:1050B0009695879597F908950E947527880B990B07
:1050C00008950F931F93CF93DF938230910510F4CF
:1050D00082E090E0E0917607F091770720E030E001
:1050E000A0E0B0E0309719F1408151810281138135
:1050F00048175907C8F08417950769F4109731F0DD
:1051000012960C93129713961C9327C00093760760
:105110001093770722C02115310519F04217530764
:1051200018F49A01BD01EF01DF01F801DBCF211571
:105130003105F9F0281B390B2430310580F48A81C0
:105140009B816115710521F0FB019383828304C06B
:105150009093770780937607FE01329644C0FE0154
:10516000E20FF31F819391932250310939832883F1
:105170003AC02091740730917507232B41F4209198
:105180000201309103013093750720937407209139
:105190000001309101012115310541F42DB73EB7D1
:1051A0004091040150910501241B350BE0917407D7
:1051B000F0917507E217F307A0F42E1B3F0B281799
:1051C000390778F0AC014E5F5F4F2417350748F080
:1051D0004E0F5F1F5093750740937407819391930F
:1051E00002C0E0E0F0E0CF01DF91CF911F910F917D
:1051F0000895CF93DF93009709F481C0FC013297A3
:1052000013821282A0917607B0917707109781F4EC
:1052100020813181820F931F20917407309175078F
:105220002817390751F5F0937507E093740767C0A5
:10523000ED0120E030E0CE17DF0740F44A815B81CA
:105240009E0141155105F1F0EA01F5CFD383C283E8
:1052500040815181840F951FC817D90759F488815F
:105260009981840F951F0296918380838A819B8107
:10527000938382832115310529F4F0937707E09316
:1052800076073DC0E901FB83EA8349915991C40F38
:10529000D51FEC17FD0761F480819181840F951F64
:1052A0000296E90199838883828193819B838A8313
:1052B000E0E0F0E012968D919C911397009719F021
:1052C000FD01DC01F7CF8D919C9111979D012E5F1F
:1052D0003F4F820F931F2091740730917507281755
:1052E000390769F4309729F41092770710927607FE
:1052F00002C013821282B0937507A0937407DF91E6
:10530000CF91089581E090E0F8940C94522CFB0129
:10531000DC018D91019080190110D9F3990B08954A
:10532000FB01DC014150504048F001900D920020FB
:10533000C9F701C01D9241505040E0F70895AEE01A
:10534000B0E0E5EAF9E20C9462250D891E8986E059
:105350008C831A8309838FEF9FE79E838D83AE0131
:10536000475E5F4F6F89788DCE0101960E94C129FB
:10537000EF81F885E00FF11F10822E96E4E00C9487
:105380007E25ABE0B0E0E7ECF9E20C9454256C012B
:105390007B018A01FC0117821682838181FFCCC1C7
:1053A000CE0101963C01F6019381F70193FD8591B1
:1053B00093FF81917F01882309F4BAC1853239F4C2
:1053C00093FD859193FF81917F01853229F4B60188
:1053D00090E00E94B82BE7CF912C212C312CFFE1DB
:1053E000F315D8F08B3279F038F4803279F08332CB
:1053F000A1F4232D20611DC08D3261F0803369F44A
:10540000232D216016C0832D8260382EE32DE460A9
:105410003E2E2AC0F32DF8601DC037FC2DC020EDB4
:10542000280F2A3040F08E32B9F436FC81C1232D8A
:105430002064322E19C036FE06C08AE0989E200DE8
:105440001124922E11C0EAE02E9E200D1124222E4E
:10545000F32DF0623F2E08C08C3621F4832D806836
:10546000382E02C0883641F4F70193FD859193FFF1
:1054700081917F018111B3CF982F9F7D95549330F7
:1054800028F40C5F1F4F9FE399830DC0833631F0E2
:10549000833771F0833509F059C021C0F80180814C
:1054A00089830E5F1F4F88248394912C530113C06E
:1054B0002801F2E04F0E511CF801A080B18036FEA9
:1054C00003C0692D70E002C06FEF7FEFC5010E943D
:1054D000AD2B4C018201F32DFF773F2E16C0280122
:1054E00022E0420E511CF801A080B18036FE03C0BC
:1054F000692D70E002C06FEF7FEFC5010E94A22B03
:105500004C01F32DF0683F2E820133FC1BC0822D2D
:1055100090E088169906B0F4B60180E290E00E940F
:10552000B82B2A94F4CFF50137FC859137FE819191
:105530005F01B60190E00E94B82B21102A9421E06F
:10554000821A91088114910471F7E8C0843611F031
:10555000893641F5F80137FE07C06081718182818B
:1055600093810C5F1F4F08C060817181072E000C72
:10557000880B990B0E5F1F4FF32DFF763F2E97FF81
:1055800009C090958095709561957F4F8F4F9F4F83
:10559000F0683F2E2AE030E0A3010E94F42B882E11
:1055A000861845C0853731F4232D2F7EB22E2AE090
:1055B00030E025C0932D997FB92E8F36C1F018F4B5
:1055C000883579F0B5C0803719F0883721F0B0C040
:1055D000E92FE061BE2EB4FE0DC0FB2DF460BF2E9E
:1055E00009C034FE0AC0292F2660B22E06C028E06A
:1055F00030E005C020E130E002C020E132E0F801F7
:10560000B7FE07C060817181828193810C5F1F4F5B
:1056100006C06081718180E090E00E5F1F4FA301A2
:105620000E94F42B882E8618FB2DFF773F2E36FE26
:105630000DC0232D2E7FA22E891458F434FE0BC0EA
:1056400032FC09C0832D8E7EA82E05C0B82CA32C59
:1056500003C0B82C01C0B92CA4FE0FC0FE01E80D98
:10566000F11D8081803321F49A2D997EA92E09C0E5
:10567000A2FE06C0B394B39404C08A2D867809F0C4
:10568000B394A3FC11C0A0FE06C0B21488F4280C89
:10569000922C9B180EC0B21460F4B60180E290E028
:1056A0000E94B82BB394F7CFB21418F42B1802C091
:1056B000982C212CA4FE10C0B60180E390E00E943B
:1056C000B82BA2FE17C0A1FC03C088E790E002C07F
:1056D00088E590E0B6010CC08A2D867859F0A1FECD
:1056E00002C08BE201C080E2A7FC8DE2B60190E02F
:1056F0000E94B82B891438F4B60180E390E00E9430
:10570000B82B9A94F7CF8A94F301E80DF11D8081AC
:10571000B60190E00E94B82B8110F5CF222009F449
:1057200042CEB60180E290E00E94B82B2A94F6CFD8
:10573000F6018681978102C08FEF9FEF2B96E2E101
:105740000C947025FC010590615070400110D8F751
:10575000809590958E0F9F1F0895FC0161507040B9
:1057600001900110D8F7809590958E0F9F1F089596
:105770000F931F93CF93DF93FB01238121FD03C080
:105780008FEF9FEF2CC022FF16C0468157812481E6
:1057900035814217530744F4A081B1819D012F5FE9
:1057A0003F4F318320838C93268137812F5F3F4F7A
:1057B0003783268314C08B01EC01FB010084F18543
:1057C000E02D0995892BE1F6D80116968D919C91D3
:1057D0001797019617969C938E931697CE01DF919B
:1057E000CF911F910F910895FA01AA27283051F106
:1057F000203181F1E8946F936E7F6E5F7F4F8F4F02
:105800009F4FAF4FB1E03ED0B4E03CD0670F781F60
:10581000891F9A1FA11D680F791F8A1F911DA11D45
:105820006A0F711D811D911DA11D20D009F468947E
:105830003F912AE0269F11243019305D3193DEF626
:10584000CF010895462F4770405D4193B3E00FD0DC
:10585000C9F7F6CF462F4F70405D4A3318F0495DC7
:1058600031FD4052419302D0A9F7EACFB4E0A695AA
:105870009795879577956795BA95C9F700976105CC
:10588000710508959B01AC010A2E06945795479522
:1058900037952795BA95C9F7620F731F841F951F17
:0858A000A01D0895F894FFCF4C
:1058A8000000780720005E00BC00770100000000BF
:1058B80000000000010001000200000000000000DC
:1058C8000000000000000000000000000F2700009A
:1058D80040420F0050C30000020002000200000016
:1058E8000020BF0200005A2820A1070020A10700BD
:1058F8000000000000000000C80751077F071508D6
:10590800B0078E07A20700000000BE1651077C07EB
:10591800BD160E172617A516000000003709B20994
:10592800C1083A0C9908F908480C1B09520CAA0836
:10593800350CD7083F0C284F4B2900213939392914
:105948000028426F6172643D44656570536B794409
:1059580061642E4146332C2056657273696F6E3D23
:10596800312E302E322900213130302900213130BA
:105978003129002131303329002131303229004CBE
:10598800454754004C4547414359204D4F44452015
:105998002D20535441525400454E41424C45204C11
:1059A8004F57004D4F56494E472053544152544586
:1059B80044004D4F56494E472046494E49534845A5
:1059C8004400454E41424C452048494748004C4513
:1059D80047414359204D4F4445202D20454E440012
:1059E8004746524D0047504F530028256C752900F3
:1059F80047545247005354524700474D4F560028CA
:105A08002568752900534D4F560053544F50004791
:105A18004D585000534D585000474D584D00534D68
:105A2800584D00474D535400475354500053535456
:105A38005000475350440053535044005253455468
:105A48000052424F540047425546005342554600C3
:105A58005745505200475245560053524556005339
:105A6800504F530047494445005349444500474D6A
:105A78004D4D00534D4D4D00474D484D00534D4839
:105A88004D0047544D43002825732900444542479B
:105A9800002D2D2D2D20454550524F4D202D2D2DBB
:105AA8002D00454550524F4D2073697A653A2000C4
:105AB80063757272656E7420736C6964696E6720B1
:105AC800616464726573733A2000736C6964696E0B
