:100000000C94DE000C9406010C9406010C9406017D
:100010000C9406010C9406010C94BA1B0C94060176
:100020000C9406010C9406010C9406010C94060134
:100030000C9406010C94771C0C9406010C94060198
:100040000C9406010C9406010C9406010C94060114
:100050000C944B1B0C9406010C9406010C940601A5
:100060000C94701B0C9406010C94051C0C94DF1B63
:100070000C9406010C94011B0C9406010C940601CF
:100080000C9406010C9406010C94951B0C94261BF1
:100090000C949D1A0C94511C0C942B1C0C9406016E
:1000A00000407A10F35A00A0724E18090010A5D42F
:1000B000E80000E87648170000E40B54020000CA8C
:1000C0009A3B000000E1F5050000809698000000D2
:1000D00040420F000000A086010000001027000031
:1000E0000000E803000000006400000000000A00B7
:1000F000000000000100000000002C76D888DC67BA
:100100004F0823DFC1DFAE59E1B1B796E5E3E45311
:10011000C63AE651997696E8E6C28426EB898C9B2E
:1001200062ED407C6FFCEFBC9C9F40F2BAA56FA5CE
:10013000F490055A2AF75C936B6CF9676DC11BFC50
:10014000E0E40D47FEF520E6B500D0ED902E03006B
:10015000943577050080841E080000204E0A0000B8
:1001600000C80C333333330F986E12831141EF8D77
:100170002114893BE65516CFFEE6DB18D1844B38B7
:100180001BF77C1D901DA4BBE424203284725E22E8
:100190008100C9F124ECA1E53D27005EBCE2613F8E
:1001A000DD83C29C7E20A3FD1F41009D23BE46DB54
:1001B00065F88C11AF32CA57E9742D1D11241FBE8A
:1001C000CFEFCDBFDFE3DEBF18E2A0E0B8E2E5E2AB
:1001D000F2E602C005900D92AA30B107D9F72BE2E2
:1001E000AAE0B8E201C01D92AB3FB207E1F710E010
:1001F000CEEDD0E004C02197FE010E940E2ACD3D35
:10020000D107C9F70E94421F0C94162F0C940000CE
:1002100045E050E090E080E0A3E0B1E06FE070E006
:1002200041505109E1F0A0930606B09308062091D1
:100230000B0620FFFCCFEFB7F89430911006209109
:100240001106EFBF2327322723272534E1E03E079D
:100250003CF3820F931FFB013197F1F7E1CF9595A6
:100260008795959587950895E091F428F091F52864
:10027000309709F44DC0A685B7858585968D91FF89
:1002800004C09C91892329F408959C91892309F045
:100290003FC0A389B4899C918589809589238C93DB
:1002A000868997890197F1F7608D718DA685B7854D
:1002B000558538E020E0CB010197F1F7822F90E0DF
:1002C00095958795282F4C91452309F0206831504A
:1002D00091F7868D81FD20958091F22890E001961E
:1002E0008F7399273091F328381799F0A091F2284D
:1002F000B0E0AE54B74D2C938093F228828D938D4D
:100300000197F1F7A389B4898C919589892B8C93F6
:100310000895868D8160868FF1CF0F931F93CF93C1
:10032000DF93582FFC0180E077E0919148E0282F7F
:1003300030E0A92FB0E08901000F012F001F110B41
:100340009170C92F90E0D92F880F0C171D0721F04D
:10035000C901880F991F8727B595A7959A2F4150F6
:1003600031F79E2F951B961700F3DF91CF911F91C8
:100370000F9108952091F4283091F5282817390716
:1003800071F49091F3288091F228981741F0E09150
:10039000F328F0E0EE54F74D808190E008958FEF60
:1003A0009FEF08950895EF92FF920F931F93CF93BD
:1003B000DF93DC015C96ED90FC905D97E114F10415
:1003C00079F481E090E012968D939C93139790E0DE
:1003D00080E0DF91CF911F910F91FF90EF900895F2
:1003E0005196ED91FC91529750968C915097982F81
:1003F00090950FB75E962C915E97122F127021FD8B
:100400006095F8942081112319F1282B2083E701AE
:100410002197F1F728E0462F50E0308160FF1AC0A5
:10042000382B3083E7012197F1F7BA01759567956D
:10043000215089F7112381F08081892380830FBFA8
:100440005C968D919C910197F1F781E090E0C1CF8E
:100450002923DCCF3923E5CF9081892BEFCF209161
:10046000F4283091F5282817390771F48091F22883
:100470002091F32890E0805C9F4F821B910960E4FB
:1004800070E00E94C429089590E080E008952091D2
:10049000F4283091F52828173907B9F49091F328FA
:1004A0008091F228981789F0E091F328F0E0EE545B
:1004B000F74D80812091F32830E02F5F3F4F2F735D
:1004C00033272093F32890E008958FEF9FEF08954E
:1004D000E091F428F091F528E817F90769F4A38969
:1004E000B4899C918589809589238C931092F428F6
:1004F0001092F52881E0089580E00895CF93DF936E
:10050000EC018A8D9B8D892B01F18091F4289091CB
:10051000F5288C179D07C9F0009711F00E9468021A
:100520008E8D8E7F8E8F1092F2281092F328C093BA
:10053000F428D093F528EB89FC8980819D89892B4B
:10054000808381E0DF91CF91089580E0FBCFDC01D3
:1005500080E0615090F09D919827E92FEF70F0E0D6
:10056000E656FE4F2491E92FE295EF70F0E0E65554
:10057000FE4FE491822F8E27ECCF0895CF93DF9327
:10058000FC012081A181B281F894FD01389780811E
:10059000822B8083ED0124979881322F309593230D
:1005A000988387E090E00197F1F78081832380832F
:1005B00083E290E00197F1F79C917894EFECF0E002
:1005C0003197F1F7922381E009F480E0DF91CF9138
:1005D0000895FC019081A181B281292F2095FD0110
:1005E0003497189760FF14C0F89480818223808329
:1005F0008C91892B8C93A3E2B0E01197F1F7808165
:10060000982B9083789487ED90E00197F1F7089507
:10061000F8948081822380838C91892B8C93AFEF17
:10062000B0E01197F1F78081982B908378948FE058
:1006300090E0EBCFDF92EF92FF920F931F93CF9357
:10064000DF93EC01D62EE42E08E010E0FF24F394B3
:1006500061E08D2D8F2109F460E0CE010E94E90256
:10066000FF0C01501109A1F7E11012C0F894E981C3
:10067000FA81389790818881809589238083E981E8
:10068000FA8134979081888180958923808378943A
:10069000DF91CF911F910F91FF90EF90DF90089520
:1006A000EF92FF920F931F93CF93DF938C017B0107
:1006B00040E065E50E941A03E70188E0E80EF11CBE
:1006C000699140E0C8010E941A03CE15DF05C1F709
:1006D000DF91CF911F910F91FF90EF900895CF93ED
:1006E000DF93FC019081A181B281F894FD013897DC
:1006F0008081292F20958223808378943DE743E0F1
:1007000050E0315049F1EA012197F1F78C918923AA
:10071000C1F3F894ED012497888182238883808136
:10072000892B80837894CBE7D7E02197F1F7F89471
:10073000808182238083E3E1F1E03197F1F78C91AE
:10074000982381E009F080E07894E3E6F6E03197C1
:10075000F1F7DF91CF91089580E0FBCF8F929F92C8
:10076000AF92BF92CF92DF92EF92FF920F931F93BF
:10077000CF93DF938C017A01FC01868197810E94DF
:10078000500340E06EEBF801868197810E941A03C6
:10079000E7015701F9E0AF0EB11CF80186809780A0
:1007A00088E0C82ED12CF12CEE24E394C4010E94E1
:1007B000BE028111FE28EE0CF1E0CF1AD108B1F78C
:1007C000F992AC16BD0649F7F801868197810E941F
:1007D0006F0391E0813009F090E0892FDF91CF9194
:1007E0001F910F91FF90EF90DF90CF90BF90AF904F
:1007F0009F908F900895EF92FF920F931F93CF9346
:10080000DF93CDB7DEB72997CDBFDEBF7C018B016B
:10081000FC01868197810E946F0381110DC020E841
:1008200034EEC9012996CDBFDEBFDF91CF911F9174
:100830000F91FF90EF900895AE014F5F5F4FB801A9
:10084000C7010E94AE03882351F368E0CE010196F0
:100850000E94A70299858913E2CF2A8130E0322FC6
:100860002227330F330F330F8981F8E08F9FC001A8
:100870001124282B392BF8018081803191F668856D
:1008800070E08F81AB01481B5109CA019695982FE2
:100890008827979587950E94C4296051710953E074
:1008A000220F331F5A95E1F72078260F371FB9CF53
:1008B0006031710509F441C088F46230710509F4B2
:1008C00054C020F4672B09F458C0089564307105B2
:1008D00009F443C068307105C1F1089560347105B1
:1008E000E1F020F46032710501F10895603871057E
:1008F00061F06115714009F048C0DC01ED91FC9197
:100900000288F389E02D60E00994DC01ED91FC910F
:100910000288F389E02D61E0F7CFDC01ED91FC91D5
:100920000288F389E02D62E0EFCFDC01ED91FC91CC
:100930000288F389E02D63E0E7CFDC01ED91FC91C3
:100940000288F389E02D64E0DFCFDC01ED91FC91BA
:100950000288F389E02D65E0D7CFDC01ED91FC91B1
:100960000288F389E02D66E0CFCFDC01ED91FC91A8
:100970000288F389E02D67E0C7CFDC01ED91FC919F
:100980000288F389E02D68E0BFCF0895DC019F96CF
:100990002C919F97211107C0ED91FC910280F3816A
:1009A000E02D6FE6099460E070E0CB010895262FFA
:1009B0002F70DC0195966C919597607F622B9596D0
:1009C0006C93959792962D913D914D915C91959751
:1009D000ED91FC910190F081E02D6CE60994DC0131
:1009E00094962C91949760FB21F994962C9394976C
:1009F00092962D913D914D915C919597ED91FC9141
:100A00000190F081E02D6CE60994DC0193968C91C5
:100A1000939760FB87F993968C93939761FB882754
:100A200080F994966C9194976E7F682B94966C9352
:100A3000949792962D913D914D915C919597ED9162
:100A4000FC9111970190F081E02D6CE6CD010994A5
:100A5000DC0192968C91929760FB87F992968C9329
:100A600092976695677093968C919397887F682B81
:100A700093966C93939792962D913D914D915C91A5
:100A80009597ED91FC9111970190F081E02D6CE626
:100A9000CD0109946770262F2295207FDC01929664
:100AA0006C9192976F78622B92966C939297929634
:100AB0002D913D914D915C919597ED91FC91019017
:100AC000F081E02D6CE60994DC019F962C919F97B4
:100AD000222339F092966D917D918D919C919597FD
:100AE0000895ED91FC910280F381E02D6CE609946C
:100AF0000E946405892F8F7008950E946405869571
:100B0000817008950E946405771F7727771F817091
:100B1000880F872B08950E946405862F881F8827D9
:100B2000881F7770770F872B08950E946405862FA2
:100B3000829587700895DC01ED91FC916285738543
:100B40004E966130710511F470E060E00C94580429
:100B5000CF93DF9390E0FC01E453F14620812F3FD7
:100B600071F0FC01EE54F146A08130E2A39FD00168
:100B70001124BC5F6130710529F411962C93DF912B
:100B8000CF91089588569146EC01E881EF3F89F0B6
:100B9000CD014096E80FF92FF11D9FB7F8941296FA
:100BA0002C9380816230710539F4886080839FBF07
:100BB000E6CFF0E0E0E0F1CF877FF8CF282F30E0FC
:100BC000F901E858F146E081EE2309F1E13021F026
:100BD000F0F0E63098F008954091010A2856314629
:100BE000F90120812C5F81E090E001C0880F2A95F7
:100BF000EAF7809584238093010A089580E1E89FB5
:100C0000F0011124E05AF54F81818F7E8183089590
:100C1000FF920F931F93CF93DF93082F10E0F801FB
:100C2000E453F146F0809FEFF916A1F0EB018B320F
:100C300010F40E94DE05F801EE54F146E08180E2F6
:100C4000E89FF0011124FC5F80818F2159F0CD2BAA
:100C500039F4F682DF91CF911F910F91FF900895A3
:100C6000F582F8CFD801A856B1468C91309771F033
:100C70008F3F61F07096E80FF11D9FB7F894808167
:100C8000CD2B39F4877F80839FBFE4CFF0E0E0E095
:100C9000F4CF8860F8CF0F931F93CF93082F10E005
:100CA000F801E453F146C081CF3FB9F08B3210F424
:100CB0000E94DE05F801EE54F146E08180E2E89FF3
:100CC000F0011124FC5F8085C82381E090E009F4E5
:100CD00080E0CF911F910F91089580E090E0F9CFCF
:100CE0008F929F92AF92BF92CF92DF92EF92FF923C
:100CF0000F931F93CF93DF93EC0180EFC82ED12C7D
:100D0000E12CF12CCE82DF82E886F98685E00E9414
:100D10004B068C0186E00E944B060130110509F05C
:100D2000CFC0019721F4CE82DF82E886F986A880C1
:100D3000B9808E01025E1F4F6E817F818885998503
:100D40000E94AB276B017C01F501668970E090E0A1
:100D500080E00E94A92720E030E048EC52E40E94A5
:100D6000812A9B01AC01C701B6010E940A280E949A
:100D7000F32A6B01F501678970E090E080E00E9442
:100D8000A92720E030E048EC52E40E94812A2DECB3
:100D90003CEC4CE45FE30E940A286BA77CA78DA77C
:100DA0009EA7B60190E080E00E94A92725ED34E0DF
:100DB00045E352E40E940A2820E030E04AE754E488
:100DC0000E94812A4B015C012AE037ED43EA5CE393
:100DD0006FA178A589A59AA50E94152AA50194015D
:100DE0000E940A2826E636E646EA5EE30E94812A49
:100DF00020E030E040E85FE30E94142A0E94FA2AD3
:100E0000F62EFFE0F61708F46AC061E0C8010E9400
:100E1000EF042AE037ED43EA5CE36FA178A589A5EA
:100E20009AA50E94152AA50194010E940A282CEE79
:100E300031E548E35EE30E94812A20E030E040E8AB
:100E40005FE30E94142A0E94FA2AF62E9F2D9F71BA
:100E500089A1807E892B89A328A1382F8AA1482FB8
:100E60004F7050E060E1C8010E94D3076F2D70E021
:100E700090E080E00E94AB272BA53CA54DA55EA588
:100E80000E940A280E94FA2A862F8F7168A1607E2C
:100E9000682B68A3262F39A18AA1482F4F7050E0F4
:100EA00060E1C801DF91CF911F910F91FF90EF900A
:100EB000DF90CF90BF90AF909F908F900C94D3070E
:100EC000012B09F034CF019709F031CF80E991E08F
:100ED000A0E0B0E08E839F83A887B98728CF60E029
:100EE000C8010E94EF04B2CFCF93DF938FB7F8947D
:100EF00020919A2830919B2840919C2850919D28C0
:100F0000E091BA0A9091B60A90FF06C02F5F3F4F5A
:100F10004F4F5F4FE091BA0A8FBFA0919828B091D0
:100F20009928C0919628D09197280E945429EC9F27
:100F30009001ED9F300D1124620F731F811D911DD3
:100F4000DF91CF9108958F929F92AF92BF92CF92EF
:100F5000DF92EF92FF924B015C010E9474076B01DC
:100F60007C01A8EEB3E0A50194010E945429C60EAD
:100F7000D71EE81EF91EC616D706E806F90618F4AD
:100F80000E947407F8CF0E9474076C157D058E05CA
:100F90009F05C8F3FF90EF90DF90CF90BF90AF9088
:100FA0009F908F900895CF92DF92EF92FF920F93D0
:100FB0001F93CF93DF93CDB7DEB72897CDBFDEBFAA
:100FC0007C011F82188685E08983D7019E968C91CB
:100FD0008A8360686B835C834D833E832F8367E0E5
:100FE000CE0101960E948D018887F70184A595A501
:100FF0009E01275F3F4F69018E010F5F1F4F892BB5
:1010000051F1D7019C968D919C91F80161918F01CE
:10101000DC01ED91FC910190F081E02D0995F70143
:1010200021893289820F931F818B928B0C151D05AC
:1010300041F762E070E080E090E00E94A30728960C
:10104000CDBFDEBFDF91CF911F910F91FF90EF9049
:10105000DF90CF900895D7019A968D919C91F801D9
:1010600061918F01DC01ED91FC910190F081E02D07
:101070000995F70121893289820F931F818B928B09
:101080000C151D0541F7D5CF2FB7F8946091922824
:101090007091932880919428909195282FBF08955E
:1010A0008F929F92AF92BF92CF92DF92EF92FF9278
:1010B000CF93DF93EC018E819F810E946F0340E00C
:1010C0006CEC8E819F810E941A03488164E48E81BA
:1010D0009F810E941A038A81882371F1E981E95076
:1010E0008EEEC82E82E0D82EE33038F4F0E0EE0F1A
:1010F000FF1FEE56F146C080D1808B81882339F1E5
:101100008881811124C00E9444084B015C010D2C90
:10111000000CEE08FF088E819F810E94BE02813084
:1011200059F00E9444086C197D098E099F096815C1
:1011300079058A059B0578F3DF91CF91FF90EF90B9
:10114000DF90CF90BF90AF909F908F900895B601A1
:10115000DD0C880B990BDF91CF91FF90EF90DF9022
:10116000CF90BF90AF909F908F900C94A3072F9239
:101170003F924F925F926F927F928F929F92AF9227
:10118000BF92CF92DF92EF92FF920F931F93CF9374
:10119000DF93CDB7DEB76397CDBFDEBF8F87988B68
:1011A0001B861C8685E08987AF85B8899E968C91C1
:1011B0008A876B8763E0CE0109960E948D018C8738
:1011C000B2E0BB8BFE013D96ED87FE87AF85B88907
:1011D0009C968D919C91009709F431C10E947E02EA
:1011E000EF85F88924A435A4D101ED91FC91048008
:1011F000F581E02DC1010995181619064CF4D101AD
:10120000ED91FC910680F781E02DC1010995ECCFAD
:101210008E01075F1F4FF80161918F01D101ED91A0
:10122000FC910190F081E02DC1010995ED85FE85CD
:10123000E017F10781F762E070E080E090E00E9443
:10124000A3070E9444082B013C018985CB84D12C43
:10125000F12CE12CDD24DA94E82A812C912C540124
:1012600005E010E00E9444086415750586059705A1
:1012700031F00150110909F47DC02B013C01D1016D
:10128000ED91FC910680F781E02DC101099597FD54
:101290000FC07A2D692D582D44274C019924092C13
:1012A000000CAA08BB08842A952AA62AB72ABB24C0
:1012B000C814D904EA04FB04A9F626013701812CDD
:1012C000912C54010E9444086B017C01E5E0F0E0A0
:1012D000E98BFA8B10E00E9444086C157D058E05A1
:1012E0009F0559F029893A8921503109298B3A8B78
:1012F000232B09F43FC06B017C01D101ED91FC91DE
:101300000680F781E02DC1010995DC0197FD1CC025
:101310009201A301B401C50108E00E94D829BB27AE
:10132000EB2FEE0FEE0B422E4A2A532E5B2A6E2E27
:10133000642A7E2E752A8E2E862A9E2E972AAE2EFF
:10134000A82ABE2EB92A1F5F153029F6D101ED91CA
:10135000FC910480F581E02DC1010995181619064C
:101360008CF4D101ED91FC910680F781E02DC10153
:101370000995ECCF412C512C612C712C812C912C96
:10138000A12CB12CEF85F88984A595A50E9468024F
:1013900062E070E080E090E00E94A307EF85F889AA
:1013A000178A9201A301B401C50108E30E94F32941
:1013B00029839201A301B401C50100E30E94F3292E
:1013C0002A839201A301B401C50108E20E94F32916
:1013D0002B839201A301B401C50100E20E94F3290D
:1013E0002C839201A301B401C50108E10E94F329F5
:1013F0002D839201A301B401C50100E10E94F329EC
:101400002E839201A301B401C50108E00E94F329D3
:101410002F83488667E0CE0101960E948D01481215
:1014200002C04110E9C0E1E0AF85B8895796EC935E
:10143000FB89F13009F4D8C021E02B8BC7CEAF85F2
:10144000B8899A962D903C90D101ED91FC91048041
:10145000F581E02DC1010995181619064CF4D1014A
:10146000ED91FC910680F781E02DC1010995ECCF4B
:101470008E01075F1F4FF80161918F01D101ED913E
:10148000FC910190F081E02DC1010995ED85FE856B
:10149000E017F10781F762E070E080E090E00E94E1
:1014A000A3070E9444082B013C018985CB84D12CE1
:1014B000F12CE12CDD24DA94E82A812C912C5401C2
:1014C00005E010E00E94440864157505860597053F
:1014D00031F00150110909F47EC02B013C01D1010A
:1014E000ED91FC910680F781E02DC101099597FDF2
:1014F0000FC07A2D692D582D44274C019924092CB1
:10150000000CAA08BB08842A952AA62AB72ABB245D
:10151000C814D904EA04FB04A9F626013701812C7A
:10152000912C54010E9444086B017C01E5E0F0E03D
:10153000E98BFA8B10E00E9444086C157D058E053E
:101540009F0559F029893A8921503109298B3A8B15
:10155000232B09F440C06B017C01D101ED91FC917A
:101560000680F781E02DC1010995DC0197FD1CC0C3
:101570009201A301B401C50108E00E94D829BB274C
:10158000EB2FEE0FEE0B422E4A2A532E5B2A6E2EC5
:10159000642A7E2E752A8E2E862A9E2E972AAE2E9D
:1015A000A82ABE2EB92A1F5F153029F6D101ED9168
:1015B000FC910480F581E02DC101099518161906EA
:1015C0000CF0E6CED101ED91FC910680F781E02D83
:1015D000C1010995EBCF412C512C612C712C812C30
:1015E000912CA12CB12CD4CE412C512C612C712CDE
:1015F000812C912CA12CB12C9201A301B401C50125
:1016000008E00E94F329B901CA016396CDBFDEBF8D
:10161000DF91CF911F910F91FF90EF90DF90CF90CE
:10162000BF90AF909F908F907F906F905F904F9002
:101630003F902F900895CF93DF93EC0181E08A874C
:101640000E9444086A8B7B8B8C8B9D8BE881F9818F
:101650008485833069F1A8F48130E1F0823019F19A
:101660002085318550E040E06A8D7B8D8C8D9D8D8D
:101670000E9435292A8F3B8F4C8F5D8FDF91CF9150
:1016800008958430D1F0853059F780EA9FE0A0E0DA
:10169000B0E004C080E097E7A1E0B0E08A8F9B8FC4
:1016A000AC8FBD8FDDCF80E89BEBA0E0B0E0F6CF44
:1016B00080EC9DE5A0E0B0E0F1CF80E49FE1A0E008
:1016C000B0E0ECCFCF92DF92EF92FF920F931F9397
:1016D000CF93DF93EC01088D198D2A8D3B8D401738
:1016E00051076207730778F5041B150B260B370BA0
:1016F0008C819D81AE81BF8180179107A207B307BE
:1017000058F1C880D980EA80FB804C155D056E05D4
:101710007F0510F46A017B010E944408FE01EB5A28
:10172000FF4F6083718382839383CC8EDD8EEE8E38
:10173000FF8E81E0DF91CF911F910F91FF90EF908D
:10174000DF90CF900895DB01CA01801B910BA20BA3
:10175000B30B8C019D01CCCF80E0ECCFCF93DF9316
:10176000EC018A85882381F0E881F9818585968559
:10177000A785B089892B8A2B8B2B31F00E944408D6
:101780006E877F87888B998B0E9444086E8B7F8B36
:10179000888F998F1B861C861A8688819981FC0107
:1017A000408D518D628D738DDF91CF910C94620BC2
:1017B000CF93DF93FC0126A1211105C08FEF9FEF8E
:1017C000DF91CF910895EC010E9408019C012659F8
:1017D000314029353105C8F0285731092336310504
:1017E000B8F028533F4F23363105A8F08554914077
:1017F0008E30924098F01EA28A819B81FC01248544
:101800002223E1F20E94AE0BD9CF81E090E0D8CF45
:1018100082E090E0D5CF83E090E0D2CF90E080E00E
:10182000CFCFCF92DF92EF92FF92CF93DF93EC0175
:101830008EA1882309F466C0EA81FB818285882312
:1018400021F08485882309F45DC00E944408C0907B
:10185000AE28D090AF28E090B028F090B1286C1955
:101860007D098E099F09643171058105910508F490
:1018700049C00E9444086B017C01C092AE28D092FE
:10188000AF28E092B028F092B128CE010E94D80B88
:101890004091AA285091AB286091AC287091AD2856
:1018A000411551056105710509F04FC1181619065A
:1018B0000CF48AC0EA81FB818485882351F1CF0131
:1018C0000E94AE0B1092AA281092AB281092AC285E
:1018D0001092AD281092A6281092A7281092A8283E
:1018E0001092A9281092A2281092A3281092A4283E
:1018F0001092A52810929E2810929F281092A0283E
:101900001092A128DF91CF91FF90EF90DF90CF90C0
:1019100008958091A6289091A728A091A828B09119
:10192000A9280097A105B10531F1A7019601281B4F
:10193000390B4A0B5B0BDA01C901853F9140A105C8
:10194000B105C8F481E08387158688819981FC01FF
:10195000408D518D628D738D4C595F4F6F4F7F4F0E
:101960000E94620B8A819B810E949B058A819B81D8
:101970000E941B0BA7CF8091A2289091A328A09131
:10198000A428B091A5280097A105B10509F49ACF24
:10199000C81AD90AEA0AFB0A25EFC21621E0D206C4
:1019A000E104F10408F08ECF81E083871486158668
:1019B00088819981FC01408D518D628D738D4456D3
:1019C000510961097109CCCF8130910509F044C0FA
:1019D000EA81FB818385882321F08485882309F4AB
:1019E00069C08091A6289091A728A091A828B091BD
:1019F000A9280097A105B10571F4CF010E94AE0B93
:101A00000E9444086093A6287093A7288093A82872
:101A10009093A92867CF2485211174CFC81AD90AB9
:101A2000EA0AFB0A25EFC21621E0D206E104F1041E
:101A300008F468CF81E08387848785878A819B81CA
:101A40000E949B058A819B81DF91CF91FF90EF904F
:101A5000DF90CF900C941B0B8230910509F047C0AA
:101A6000EA81FB818385882319F08485882311F11D
:101A70008091A2289091A328A091A428B091A52894
:101A80000097A105B105F9F4CF010E94AE0B1092A9
:101A9000A6281092A7281092A8281092A9280E9480
:101AA00044086093A2287093A3288093A42890935D
:101AB000A52820CFCF01DF91CF91FF90EF90DF904D
:101AC000CF900C94AE0B248521111CCFC81AD90AD3
:101AD000EA0AFB0A35EFC31631E0D306E104F1044C
:101AE00008F410CF81E0838784871586A7CF0397FA
:101AF00009F008CF8A819B810E94AE0B1092A62824
:101B00001092A7281092A8281092A9281092A22813
:101B10001092A3281092A4281092A5280E9444088D
:101B200060939E2870939F288093A0289093A1286B
:101B300081E090E0A0E0B0E08093AA289093AB28E9
:101B4000A093AC28B093AD28DDCE4130510561059E
:101B5000710509F0D7CE181619060CF4D3CEE8811A
:101B6000F98180919E2890919F28A091A028B09102
:101B7000A128C81AD90AEA0AFB0A49EEC41643E0AA
:101B8000D406E104F104B0F0DF01A05BBF4F81E0B7
:101B90008C9381E090E0828793878A819B810E9469
:101BA0009B051092AA281092AB281092AC28109294
:101BB000AD28A8CE828593858F3F910509F088F7DF
:101BC000880F991F9C012150310922303105B0F056
:101BD0008430910599F08830910581F0803191052C
:101BE00069F08032910551F08034910539F08038E8
:101BF000910521F0811551E0950779F6DF01A05B91
:101C0000BF4F21E02C93C7CFAF92BF92CF92DF920C
:101C1000EF92FF920F931F93CF93DF936C017B01A1
:101C20008B01040F151FEB015E01AE18BF08C01732
:101C3000D10759F06991D601ED91FC910190F081A5
:101C4000E02DC6010995892B79F7C501DF91CF9168
:101C50001F910F91FF90EF90DF90CF90BF90AF90CA
:101C60000895EF92FF920F931F93CF93DF9390E22B
:101C7000899FE0011124DC5FE984082F000F000F29
:101C8000000FFF24F39410E08E2D8F2179F0E02FC8
:101C9000E10FF0E0EE0FFF1FEA50F74D80819181D8
:101CA000892B21F00190F081E02D09951F5FFF0C39
:101CB000183051F7E986DF91CF911F910F91FF9076
:101CC000EF900895FC01A485B58511968C9111972C
:101CD00081FD0FC09C9182898F5F8F7323892817A4
:101CE00049F0A289AE0FBF2FB11D59969C93828BEC
:101CF00008958C910895FC0154894589252F30E081
:101D0000842F90E0821B930B541710F0CF96089508
:101D100001970895FC0192898389981761F0A3893E
:101D2000AE0FBF2FB11D59968C9193899F5F9F7302
:101D3000938B90E008958FEF9FEF0895FC019289B7
:101D40008389981731F08389E80FF11D818D90E028
:101D500008958FEF9FEF0895FC0192892389892FC1
:101D600090E0805C9F4F821B91098F7399270895A3
:101D700083EC9AE20E94AC0E21E0892B09F420E06A
:101D8000822F08958CE59BE20E94AC0E21E0892B06
:101D900009F420E0822F0895CF93DF93EC01E881CE
:101DA000F9810284F385E02D0995EC85FD85868116
:101DB0008F738683EC85FD8585818F7585838B89FF
:101DC0008A8B198ADF91CF910895CF92DF92EF929B
:101DD000FF920F931F93CF93DF93EC016A017B0176
:101DE000022F8989882339F0E881F9810088F189F7
:101DF000E02DCE01099598898091E205892B809389
:101E0000E2051FB7F89460E070E281EA97E0A7016D
:101E100096010E94132969017A018FEFC81AD80A26
:101E2000E80AF80AF694E794D794C794EC85FD8500
:101E300086818D7F8683EC85FD8586818683198AE0
:101E4000A09123110A2E000CBB0BA70196010E9442
:101E50005F2920E034E040E050E00E943529EC8525
:101E6000FD85C20ED31EE41EF51EC086D186EC850C
:101E7000FD850783EC85FD858681806C8683EC85F6
:101E8000FD858581806885838E858B3220F462E0B4
:101E900070E00E94A8058F858B3220F461E070E02D
:101EA0000E9408068F858B3220F461E070E00E946A
:101EB000A8051FBFDF91CF911F910F91FF90EF9069
:101EC000DF90CF900895CF93DF93FC0194898589AB
:101ED000C485D585981306C08D818F7D8D83DF9154
:101EE000CF910895A589AE0FBF2FB11DA75ABF4F3F
:101EF0002C91858990E001968F739927858B80E4DA
:101F00008C83A485B58512962C9394898589981322
:101F1000E6CFA485B58515968C9115978F7D15967E
:101F20008C9387898823D9F2808D80931301178A37
:101F3000D6CFDC011C96ED91FC910FB607FE03C0D5
:101F4000258125FD04C0248125FD0C94630F08958F
:101F5000EF92FF920F931F93CF93DF93EC0181E0F9
:101F6000898B9C898D8998131CC0AC85BD8514967E
:101F70008C91149785FF15C012966C93AC85BD8526
:101F800080E414968C93EC85FD8585818F7D858317
:101F900081E090E0DF91CF911F910F91FF90EF9042
:101FA00008958091110180FF08C080911301888FEE
:101FB0008E898093130181E08F8BF62E0C8910E0BF
:101FC0000F5F1F4F0F731127E02E8D898E1104C0F4
:101FD000CE010E94990FF9CFEC89EC0FFD2FF11D76
:101FE000E75AFF4FF0820C8BEC85FD85858180627E
:101FF000CECFCF93DF93FC0121892223C9F0EC01DE
:102000008091110180FF08C080911301808F868923
:102010008093130181E0878BEC85FD85858185FDAB
:1020200003C0848186FD04C0CE010E94990FF4CFC5
:10203000DF91CF91089580E090E0892B29F00E94F4
:10204000C20E81110E94000080E090E0892B29F0EF
:102050000E94B80E81110C940000089581E008954B
:10206000DC01ED91FC910684F785E02D23E030E062
:102070000994BF92CF92DF92EF92FF920F931F933A
:10208000CF93DF93EC01B62EC72E8D85811105C04D
:10209000CE010E946F0381110EC01B861D861C8617
:1020A00080E0DF91CF911F910F91FF90EF90DF9033
:1020B000CF90BF90089540E060EFCE010E941A03D8
:1020C00001E0E12CD12C11E0CE010E94BE02F82EDD
:1020D000CE010E94BE0291E0F91218C0813099F53C
:1020E0001134D8F2DB86D11002C081E08D878B815C
:1020F000882399F22396EB2DFC2DCF010896299188
:102100002193E817F907D9F781E0CBCFEE2DF0E066
:10211000F8120FC08B851817A0F4DE01AE0FBF1F99
:1021200013968C91802379F4F12C193008F41C87D4
:10213000D12EEC0FFD1F8381902F909589238383EF
:102140000AC08113F1CFFE01EE0DF11D8381802BBA
:102150008383FF24F3946F2DCE010E94E9021F5F59
:10216000000F11F4E39401E087E08E1508F0ACCF86
:10217000B7CFCF93DF93EB01DC011696ED91FC9185
:102180001797138615861486128611861086178275
:10219000168215821482138216968D919C910E944C
:1021A0003910982F882341F067E0CE010E94A702E2
:1021B00091E02F81281390E0892FDF91CF9108952E
:1021C0000F931F93CF93DF93CDB7DEB72897CDBF83
:1021D000DEBF8C01BE016F5F7F4F0E94B91081117D
:1021E0000CC060E070E08EEF92EC2896CDBFDEBFB1
:1021F000DF91CF911F910F910895BE016F5F7F4FC7
:10220000C8010E94FB03813824EE920754F3BC01FD
:10221000990F880B990B0E94AB2720E030E040E03B
:102220005CE30E940A28E1CF8AE69AE280931C2AA6
:1022300090931D2A8CEE99E280931E2A90931F2A78
:102240008091202A81113AC061E070E082E00E9412
:10225000A80561E070E083E00E94A80561E070E0FD
:1022600088E00E94A80561E070E087E00E94A80570
:1022700061E070E089E00E94A80562E070E085E01E
:102280000E94A80562E070E086E00E94A80570E068
:1022900060E08EE00E94A80570E060E082E00E94AD
:1022A000080670E060E083E00E94080661E070E0EC
:1022B00089E00E94080681E08093202AA091662A86
:1022C000B091672A109709F44FC08FE190E05C96B7
:1022D0008D939C935D9781E090E056968D939C93AF
:1022E00057978DE190E058968D939C9359978DE088
:1022F00090E05A968D939C935B971C962C911C971B
:102300002B3248F530E0F901E856F14680818F3FE5
:1023100011F12E543146F9019081E92FEE0FEE0FA5
:10232000EE0FE80FE033B8F4F0E0EE0FFF1FEA50D5
:10233000F74D24E331E02083318320E2929FF001C6
:102340001124FC5F7096E80FF11D8081887F8083E7
:102350008081816080835C968D919C915D970197CF
:10236000F1F7CD010E947E028091522A8064809311
:10237000522A282F8091532A382F337050E040E0A2
:1023800060E08AE39AE20E94D3078091522A806833
:102390008093522A282F8091532A382F337050E08F
:1023A00040E060E08AE39AE20E94D3078AE39AE27F
:1023B0000E94C604611571058105910509F48BC061
:1023C0006F3F7F4F8F4F9F4F09F485C08091522AF6
:1023D00080648093522A282F8091532A382F33709B
:1023E00050E040E060E08AE39AE20E94D3078CE18B
:1023F0009AE20E9470068091522A80688093522A45
:10240000282F8091532A382F337050E040E060E04D
:102410008AE39AE20E94D3078091522A8E7F8093AA
:10242000522A282F8091532A382F337050E040E0F1
:1024300060E08AE39AE20E94D307E0911C2AF091BF
:102440001D2A608571856130710511F470E060E0CE
:102450008AE39AE20E94580461E08AE39AE20E94C9
:10246000050580915C2A807F856080935C2A20919D
:102470005C2A30915D2A40915E2A50915F2A6CE679
:102480008AE39AE20E94D30780915F2A8061809359
:102490005F2A20915C2A30915D2A40915E2A5091FA
:1024A0005F2A6CE68AE39AE20E94D3078FEF80935B
:1024B0003F2A2FEF30E040E050E061E18AE39AE20A
:1024C0000E94D30770E060E089E00E94080681E086
:1024D0008093212A089580E00895FB010190002057
:1024E000E9F73197AF01461B570BDC01ED91FC91E9
:1024F0000280F381E02D09948F929F92AF92BF9258
:10250000EF92FF920F931F93CF93DF93CDB7DEB778
:10251000A197CDBFDEBF7C01FA01CB0119A2223009
:1025200008F42AE08E010F5D1F4F822E912CB12CF2
:10253000A12CBF01A50194010E941329F901CA0130
:102540006A30F4F4605DD8016E938D01232B242B47
:10255000252B79F790E080E0109721F0BD01C701AD
:102560000E946D12A196CDBFDEBFDF91CF911F916A
:102570000F91FF90EF90BF90AF909F908F90089534
:10258000695CE1CF8F929F92AF92BF92CF92DF9220
:10259000EF92FF920F931F93CF93DF937C01EB0198
:1025A0006C0182E0C80ED11C4701E5E08E0E911C43
:1025B00010E000E0F60141916F0150E070E060E052
:1025C0002AE0CE010E947C125C01E881F981019031
:1025D000F081E02D6EE2CE0109958A0D9B1D080F5A
:1025E000191FC814D90431F7F701458150E070E094
:1025F00060E02AE0CE010E947C12800F911FDF91E3
:10260000CF911F910F91FF90EF90DF90CF90BF90EF
:10261000AF909F908F900895009729F0BC018CE5B2
:102620009BE20C946D1290E080E008956EE27FE9E9
:102630008CE59BE20C946D12CF93DF93BC018CE58B
:102640009BE20E946D12EC010E9416138C0F9D1FDD
:10265000DF91CF910895CF92DF92EF92FF920F9387
:102660001F93CF93DF93CDB7DEB76097CDBFDEBFAB
:102670008C01F62E0E944408F801EF5AFF4F608348
:1026800071838283938331971082359610821182F1
:1026900012821382F80184819581A681B7814081DD
:1026A000518162817381840F951FA61FB71F4585D5
:1026B000568567857089840F951FA61FB71F4189AE
:1026C000528963897489840F951FA61FB71F408D97
:1026D000518D628D738D840F951FA61FB71F2485A2
:1026E000820F911DA11DB11D2689820F911DA11D73
:1026F000B11D2789820F911DA11DB11D2085820F5B
:10270000911DA11DB11D2285820F911DA11DB11D1D
:102710002589820F911DA11DB11D80A391A3A2A3A4
:10272000B3A344E050E070E060E0C8010E94CC2810
:1027300044E050E064E070E0C80104960E94CC28B8
:1027400042E050E068E070E0C80108960E94CC28A2
:1027500042E050E06AE070E0C8010A960E94CC288E
:1027600041E050E06CE070E0C8010C960E94CC287B
:1027700044E050E06DE070E0C8010D960E94CC2866
:1027800044E050E061E170E0C80141960E94CC282D
:1027900041E050E065E170E0C80145960E94CC2818
:1027A00041E050E066E170E0C80146960E94CC2806
:1027B00041E050E067E170E0C80147960E94CC28F4
:1027C000C801825B9F4F6C01FF2049F0F801E65B76
:1027D000FF4F80819181F601808391836CC0FC0161
:1027E000E080F18044E050E0B701CE010D960E94F8
:1027F000C828B7016C5F7F4F44E050E0CE010996D6
:102800000E94C828B701685F7F4F44E050E0CE01C6
:1028100005960E94C828F801408D518D628D738DF8
:102820008D859E85AF85B889481759076A077B074C
:10283000D1F4448D558D668D778D89859A85AB85CC
:10284000BC85481759076A077B0769F440A151A165
:1028500062A173A18D819E81AF81B8854817590708
:102860006A077B0741F1F601608171817801F8E424
:10287000EF0EF11CF70180819181680F791F645080
:10288000710919821A821B821C8244E050E0CE0139
:1028900001960E94CC28F70180819181F601208168
:1028A0003181280F391F20833183820F931F81309C
:1028B00091400CF08BCFF601C080D18044E050E015
:1028C000B601C80148960E94CC28B6016C5F7F4FC4
:1028D00044E050E0C8014C960E94CC28B601685FE5
:1028E0007F4F44E050E0C80180960E94CC2860965B
:1028F000CDBFDEBFDF91CF911F910F91FF90EF9081
:10290000DF90CF9008958F929F92AF92BF92CF9217
:10291000DF92EF92FF920F931F93CF93DF93C8E55F
:10292000D9E216E48CE59BE20E94AC0E892B09F4F7
:10293000F5C58CE59BE20E948A0E8B3551F410920E
:102940009E2910929F29DE01E12F1D92EA95E9F759
:10295000E9CF8D3509F0D3C5C8E5D9E2099000204B
:10296000E9F7C955D942C093A029D093A129109263
:10297000E8291092E929E2EAF9E285E0DF011D92F7
:102980008A95E9F7E7EAF9E281E4DF011D928A9589
:10299000E9F7C430D105C0F044E050E068E579E2E1
:1029A00082EA99E20E94662CC530D10568F0AE013A
:1029B000445051094093E8295093E9296CE579E2A4
:1029C00087EA99E20E94662C62EA79E28AE79FE947
:1029D0000E945D2C892B09F03DC08FE79FE90E9482
:1029E0001C1370E060E089E00E94080683E99FE91B
:1029F0000E941C138EE99FE90E941C13C4EFD1E0D2
:102A00000BEF1CE770E060E082E00E94080661E0E6
:102A100070E083E00E94080670E060E083E00E94BE
:102A20000806C8010197F1F7219761F78DEA9FE940
:102A30000E941C1361E070E089E00E9408068DEBA3
:102A40009FE90E941C1389EC9FE90E941C13C1E3BB
:102A5000DFE936C0E0905629F0905729F701C2818E
:102A6000D3818D81882309F441C562EA79E28BED37
:102A70009FE90E945D2C892B09F43BC562EA79E24B
:102A800080EE9FE90E945D2C892B49F5E70128968D
:102A9000D701ED91FC91838D8F93828D8F93818DE2
:102AA0008F93808D8F9385EE9FE99F938F93DF9314
:102AB000CF930E94752C8DB79EB708968DBF9EBF91
:102AC000CE01DF91CF911F910F91FF90EF90DF909A
:102AD000CF90BF90AF909F908F900C940C1362EAB0
:102AE00079E28BEE9FE90E945D2C892BD9F4E701F6
:102AF0002896D701ED91FC91878D8F93868D8F93CA
:102B0000858D8F93848D8F9385EE9FE99F938F930F
:102B1000DF93CF930E94752C8DB79EB708968DBF1B
:102B20009EBFCECF62EA79E280EF9FE90E945D2CE2
:102B3000892BA9F44AE050E070E060E087EA99E26E
:102B40000E945024AB01BC01D7018D919C910E9441
:102B5000620BC8E6DFE9882309F4B2CF78CF62EAD6
:102B600079E285EF9FE90E945D2C892BB1F58A857A
:102B7000882329F081E0E70128961F9217C1E88198
:102B8000F98185859685A785B089892B8A2B8B2B22
:102B900011F18E859F85A889B989892B8A2B8B2B6A
:102BA000D1F00E9444088E849F84A888B98868194F
:102BB00079098A099B09E881F98185849684A7842B
:102BC000B088681579058A059B05A0F21E861F86C8
:102BD000188A198ACFCF80E0CECF62EA79E280E00E
:102BE00090EA0E945D2C892BA1F4E881F98160852F
:102BF0007185CE014E966130710511F470E060E090
:102C00000E945804D70112968D919C910E941B0B33
:102C10001ECF62EA79E285E090EA0E945D2C892B62
:102C200021F4CE010E94AE0B12CF62EA79E28AE073
:102C300090EA0E945D2C892BD9F4E7012896D701F0
:102C4000ED91FC9183818F9382818F9381818F930A
:102C500080818F9385EE9FE99F938F93DF93CF932E
:102C60000E94752C8DB79EB708968DBF9EBF28CF4A
:102C700062EA79E28FE090EA0E945D2C892BC9F527
:102C8000D701CD91DC914AE050E070E060E087EA46
:102C900099E20E9450246031B7E27B0781059105DB
:102CA00020F460E177E280E090E0CC8CDD8CEE8C6B
:102CB000FF8C6C157D058E059F0520F46C8F7D8F34
:102CC0008E8F9F8FC88CD98CEA8CFB8C6C157D0500
:102CD0008E059F0520F4688F798F8A8F9B8FFE0168
:102CE000E05BFF4F21E02083688379838A839B83A5
:102CF000AECE62EA79E284E190EA0E945D2C892BF3
:102D0000D9F4E7012896D701ED91FC9187818F9343
:102D100086818F9385818F9384818F9385EE9FE940
:102D20009F938F93DF93CF930E94752C8DB79EB79F
:102D300008968DBF9EBFC4CE62EA79E289E190EA2F
:102D40000E945D2C892B11F5D701CD91DC914AE0D1
:102D500050E070E060E087EA99E20E945024FE01B2
:102D6000E05BFF4F41E04083462F572FBC01483EB8
:102D7000B3E05B076105710520F448EE53E060E0C5
:102D800070E04C835D836E837F8361CE62EA79E27B
:102D90008EE190EA0E945D2C892BC1F4E701289610
:102DA000D701ED91FC9183858F9382858F938AEF74
:102DB0009FE99F938F93DF93CF930E94752C0F9081
:102DC0000F900F900F900F900F907ACE62EA79E2F9
:102DD00083E290EA0E945D2C892B49F4E701289652
:102DE000D701ED91FC9181858F938085DFCF62EAD9
:102DF00079E288E290EA0E945D2C892B91F54AE005
:102E000050E070E060E087EA99E20E945024D70128
:102E1000ED91FC919B012150310922303105C8F020
:102E200064307105B1F06830710599F06031710559
:102E300081F06032710569F06034710551F06038DD
:102E4000710539F0C4E7DFE96115B1E07B0709F0EE
:102E500037CEDF01A05BBF4F21E02C9360877187E5
:102E6000F6CD62EA79E28DE290EA0E945D2C892B30
:102E700039F4E7012896D701ED91FC9184857DCE48
:102E800062EA79E282E390EA0E945D2C892BB9F430
:102E9000D701CD91DC914AE050E070E060E087EA34
:102EA00099E20E9450248FEF860F853008F024C3EA
:102EB000FE01E05BFF4F81E080836C87C8CD62EA52
:102EC00079E287E390EA0E945D2C892B79F4F7017F
:102ED0008081918124E2FC01B496DC0101900D9285
:102EE0002A95E1F761E00E942B13B1CD62EA79E205
:102EF0008CE390EA0E945D2C892B29F40C9400004D
:102F0000C2E6DFE9DDCD62EA79E281E490EA0E947F
:102F10005D2C892BD9F4E7012896D701ED91FC911E
:102F200080898F9387858F9386858F9385858F93EF
:102F300085EE9FE99F938F93DF93CF930E94752C2B
:102F40008DB79EB708968DBF9EBFBACD62EA79E273
:102F500086E490EA0E945D2C892BA9F4D701CD91DB
:102F6000DC914AE050E070E060E087EA99E20E947C
:102F70005024FE01E05BFF4F21E020836D877E87B8
:102F80008F87988B64CD62EA79E28BE490EA0E94A5
:102F90005D2C892B09F45BCD62EA79E280E590EA49
:102FA0000E945D2C892B39F4E7012896D701ED9119
:102FB000FC918589E2CD62EA79E285E590EA0E949A
:102FC0005D2C892B89F4D701CD91DC9187EA99E2B8
:102FD0000E943B25FE01E05BFF4F21E02083892B0F
:102FE00009F420E02D8B33CD62EA79E28AE590EA9C
:102FF0000E945D2C892B21F5F701C081D1814AE027
:1030000050E070E060E087EA99E20E945024C880B6
:10301000D980EA80FB806C157D058E059F0510F434
:103020006B017C01FE01E05BFF4F21E02083CC8E31
:10303000DD8EEE8EFF8EC88ED98EEA8EFB8E07CD8A
:1030400062EA79E28FE590EA0E945D2C892BD9F43F
:10305000E7012896D701ED91FC9184898F938389AC
:103060008F9382898F9381898F9385EE9FE99F93B8
:103070008F93DF93CF930E94752C8DB79EB70896E0
:103080008DBF9EBF1DCD62EA79E284E690EA0E9480
:103090005D2C892BA9F4D701CD91DC914AE050E059
:1030A00070E060E087EA99E20E945024FE01E05B54
:1030B000FF4F21E02083698B7A8B8B8B9C8BC7CC55
:1030C00062EA79E289E690EA0E945D2C892B39F464
:1030D000E7012896D701ED91FC9186894ECD62EAF1
:1030E00079E28EE690EA0E945D2C892BF1F4D701FB
:1030F000CD91DC914AE050E070E060E087EA99E22F
:103100000E945024662379F0653608F064E6FE01DB
:10311000E05BFF4F81E080836E8BF70182819381BA
:103120000E94700694CC61E0F2CF62EA79E283E714
:1031300090EA0E945D2C892B39F4E7012896D7018B
:10314000ED91FC91878919CD62EA79E288E790EAEE
:103150000E945D2C892BC9F4D701CD91DC914AE006
:1031600050E070E060E087EA99E20E945024662314
:1031700051F0653608F064E6FE01E05BFF4F81E048
:1031800080836F8BCACF61E0F7CF62EA79E28DE787
:1031900090EA0E945D2C892BF9F4D7011496CD9109
:1031A000DC916296CE010E945008CE010E94E01090
:1031B0006701B8E0CB0ED11C860122E046E00E94F8
:1031C0003224E701EA96DF92CF9282E890EA9F9359
:1031D0008F93DF93CF93F1CD62EA79E287E890EAAB
:1031E0000E945D2C892B09F08BCE0E9416138CE86F
:1031F00090EA0E941C13D701CD91DC918DE990EAF1
:103200000E940C1380E091E00E94EF1C8BEA90EA90
:103210000E940C13FE01E25BFF4F808191810E94AE
:10322000EF1C85EC90EA0E940C13FE01E45BFF4F5B
:10323000808191810E94EF1C8BED90EA0E940C131B
:10324000688179818A819B810E941C1D89EE90EAA8
:103250000E940C136C817D818E819F810E941C1DB8
:1032600087EF90EA0E940C1388850E94091D82E076
:1032700091EA0E940C138A850E94091D83E191EA5C
:103280000E940C138C850E94091D8FE191EA0E9417
:103290000C136D857E858F8598890E941C1D80E3A7
:1032A00091EA0E940C1369897A898B899C890E9412
:1032B0001C1D84E491EA0E940C138D8990E00E9409
:1032C000EF1C87E591EA0E940C138E890E94091D6C
:1032D0008EE691EA0E940C138F890E94091D85E8F1
:1032E00091EA0E940C13688D798D8A8D9B8D0E94C6
:1032F0001C1D80E991EA0E940C136C8D7D8D8E8DD2
:103300009F8D0E941C1D81EA91EA0E940C1368A106
:1033100079A18AA19BA10E941C1D8CEA91EA0E94BE
:103320001C13F701C281D3818CEB91EA0E940C132C
:103330004E815F816885798577FF53C0CB01BA01E3
:103340000E94CC1C0E94161386ED91EA0E941C1369
:10335000D7011496CD91DC9186EE91EA0E940C1370
:103360000E9408010E94EF1C8AEF91EA0E940C1350
:10337000C8A4D9A4EAA4FBA4A7019601C701B60179
:103380000E942E2B68E072EA81111AC04601570193
:10339000E894B7F82FEF3FEF4FE75FE7C501B401BF
:1033A0000E942E2B811123C02FEF3FEF4FE75FE7E5
:1033B000C501B4010E94A4271816CCF46CE072EA8F
:1033C0008CE59BE20E946D120E94161386E192EA40
:1033D0000E940C138EA190E00E94EF1C0E94161315
:1033E00036CB2AE08CE59BE20E947C12ABCF2FEF1C
:1033F0003FEF4FE75FE4C701B6010E94292B181683
:103400001CF460E172EADCCF2FEF3FEF4FE75FEC97
:10341000C701B6010E94A42787FDF3CF20E030E06A
:10342000A901C701B6010E94A42787FF09C06DE268
:103430008CE59BE20E94A80FF7FAF094F7F8F0945D
:103440002AE037ED43EA5BE3C701B6010E94152A83
:103450004B015C010E94FA2A6B017C010E94A927A2
:103460009B01AC01C501B4010E94142A4B015C010F
:103470002AE0B701A6018CE59BE20E947C1264E180
:1034800072EA8CE59BE20E946D1220E030E040E29F
:1034900051E4C501B4010E940A284B015C010E945D
:1034A000FA2A6B01F12CE12C2AE0B701A6018CE588
:1034B0009BE20E947C12C701B6010E94A9279B01D2
:1034C000AC01C501B4010E94142A20E030E040E2C2
:1034D00051E40E940A280E94FA2AAB0170E060E0E1
:1034E0002AE08CE59BE20E947C126ECFC6E3DFE906
:1034F000E7CACCE3DFE9E4CACEE6DFE9E1CA20911E
:103500009E2930919F29F901EA5AF64D82832F5F57
:103510003F4F20939E2930939F2904CADF91CF917A
:103520001F910F91FF90EF90DF90CF90BF90AF90E1
:103530009F908F9008950E94582C1F920F920FB663
:103540000F9211242F933F934F935F936F937F9329
:103550008F939F93AF93BF9340919228509193285C
:10356000609194287091952880919028909191284D
:1035700020918E2830918F28420F531F611D711D9D
:1035800020918C2830918D28820F931F883E23E054
:10359000920730F0885E93404F5F5F4F6F4F7F4FD1
:1035A0008093902890939128409392285093932849
:1035B000609394287093952880919A2890919B28E5
:1035C000A0919C28B0919D280196A11DB11D8093CA
:1035D0009A2890939B28A0939C28B0939D2881E0E3
:1035E0008093B60ABF91AF919F918F917F916F9118
:1035F0005F914F913F912F910F900FBE0F901F90B1
:1036000018951F920F920FB60F9211242F933F938C
:103610004F935F936F937F938F939F93AF93BF93DA
:10362000EF93FF9385E00E94310EFF91EF91BF91E0
:10363000AF919F918F917F916F915F914F913F914A
:103640002F910F900FBE0F901F9018951F920F9201
:103650000FB60F9211242F933F934F935F936F9365
:103660007F938F939F93AF93BF93EF93FF9384E0E8
:103670000E94310EFF91EF91BF91AF919F918F9179
:103680007F916F915F914F913F912F910F900FBE5E
:103690000F901F9018951F920F920FB60F92112442
:1036A0002F933F934F935F936F937F938F939F934A
:1036B000AF93BF93EF93FF9383E00E94310EFF918E
:1036C000EF91BF91AF919F918F917F916F915F919A
:1036D0004F913F912F910F900FBE0F901F90189513
:1036E0001F920F920FB60F9211242F933F934F9377
:1036F0005F936F937F938F939F93AF93BF93EF935A
:10370000FF9382E00E94310EFF91EF91BF91AF9144
:103710009F918F917F916F915F914F913F912F91E9
:103720000F900FBE0F901F9018951F920F920FB61B
:103730000F9211242F933F934F935F936F937F9337
:103740008F939F93AF93BF93EF93FF9381E00E947A
:10375000310EFF91EF91BF91AF919F918F917F912A
:103760006F915F914F913F912F910F900FBE0F90EE
:103770001F9018951F920F920FB60F9211242F933E
:103780003F934F935F936F937F938F939F93AF93E9
:10379000BF93EF93FF9380E00E94310EFF91EF9172
:1037A000BF91AF919F918F917F916F915F914F9159
:1037B0003F912F910F900FBE0F901F9018951F9261
:1037C0000F920FB60F9211242F933F934F935F9355
:1037D0006F937F938F939F93AF93BF93EF93FF93D9
:1037E00083EC9AE20E94630FFF91EF91BF91AF913A
:1037F0009F918F917F916F915F914F913F912F9109
:103800000F900FBE0F901F9018951F920F920FB63A
:103810000F9211242F933F934F935F936F937F9356
:103820008F939F93AF93BF93EF93FF9383EC9AE2B1
:103830000E94620EFF91EF91BF91AF919F918F9186
:103840007F916F915F914F913F912F910F900FBE9C
:103850000F901F9018951F920F920FB60F92112480
:103860002F933F934F935F936F937F938F939F9388
:10387000AF93BF93EF93FF938CE59BE20E94630F9E
:10388000FF91EF91BF91AF919F918F917F916F9138
:103890005F914F913F912F910F900FBE0F901F900E
:1038A00018951F920F920FB60F9211242F933F93EA
:1038B0004F935F936F937F938F939F93AF93BF9338
:1038C000EF93FF938CE59BE20E94620EFF91EF91D4
:1038D000BF91AF919F918F917F916F915F914F9128
:1038E0003F912F910F900FBE0F901F9018951F9230
:1038F0000F920FB60F9211248F939F93AF93BF93A4
:1039000080910B2890910C28A0910D28B0910E2841
:10391000892B8A2B8B2B79F180910A2880B9809191
:103920000B2890910C28A0910D28B0910E28181604
:1039300019061A061B069CF480910B2890910C28FE
:10394000A0910D28B0910E280197A109B10980938B
:103950000B2890930C28A0930D28B0930E2881E09B
:103960008093960ABF91AF919F918F910F900FBE58
:103970000F901F90189580910B2890910C28A09182
:103980000D28B0910E28892B8A2B8B2B41F7109292
:10399000950A1092900AE3CFCF92DF92EF92FF92B6
:1039A000CF93DF936B017C016DE28CE59BE20E947B
:1039B000A80FEC0144275527BA014C195D096E097F
:1039C0007F092AE08CE59BE20E947C128C0F9D1FF0
:1039D000DF91CF91FF90EF90DF90CF900895CF933C
:1039E000DF93AC01990F660B770B77FF0CC0CB010F
:1039F000BA010E94CC1CEC010E9416138C0F9D1F73
:103A0000DF91CF9108952AE08CE59BE20E947C1221
:103A1000F2CFCF93DF93482F50E070E060E02AE0D0
:103A20008CE59BE20E947C12EC010E9416138C0F25
:103A30009D1FDF91CF910895CF93DF93AB01BC0120
:103A40002AE08CE59BE20E947C12EC010E94161396
:103A50008C0F9D1FDF91CF9108951F93CF93DF931C
:103A6000409100285091012860910228709103280C
:103A7000769567955795479580E0413099E05907CD
:103A80009DE36907710540F07695679557954795D1
:103A90008F5F863091F787E094E09093EB29982F21
:103AA0009095292F217030E094E0220F331F9A95D2
:103AB000E1F78162822B8093EA2984E2E0E3FEE968
:103AC000AAE6BAE201900D928A95E1F784E2E4E574
:103AD000FEE9AEE8BAE201900D928A95E1F78CE03A
:103AE00090E08093B22A9093B32A88E190E080938B
:103AF000B42A9093B52A25E130E02093B62A30937A
:103B0000B72A8093B82A9093B92A1092BF2A1092AC
:103B1000C02A1092C12A1092C22A1092202A109212
:103B2000212A10922E2A10922F2A1092302A1092B7
:103B3000312A1092322A1092332A1092342A10928B
:103B4000352A10923C2A10923D2A80913E2A807F8D
:103B500080933E2A10923F2A1092402A1092412AC6
:103B60008091422A807F8093422A8EEA97E4A1EED8
:103B7000BDE38093432A9093442AA093452AB093AF
:103B8000462A40E050E060E07FE34093472A5093AC
:103B9000482A6093492A70934A2A2AEF3EE92093E3
:103BA0003A2A30933B2A10924B2A10924C2A809347
:103BB0004D2A90934E2AA0934F2AB093502A1092E8
:103BC000512A1092522A8091532A8C7F8093532A33
:103BD0001092542A8091552A807F8093552A109202
:103BE000562A1092572A1092582A1092592A109247
:103BF0005A2A10925B2A10925C2A10925D2A109227
:103C00005E2A10925F2A1092602A1092612A109206
:103C1000622A1092632A1092642A1092652A1092E6
:103C2000662A1092672A1092682A1092692A8FE1F8
:103C300090E00E94332BEC011A821B8288EE93E005
:103C4000A0E0B0E08C839D83AE83BF838AEE9EE9C3
:103C5000888399831E8A1F8A188E198E1A8E1B8E4E
:103C60001C8E1D8E6E8D6E7F6D7F6E8F669581E0D2
:103C70006827617070E08CE00E94080661E070E0E7
:103C80008CE00E94A80582E0888B84E894E0898B10
:103C90009A8B70E060E08BE00E94A8058E8D81FD1C
:103CA00005C061E070E08BE00E9408068BE08C8725
:103CB00011E01D8788E894E08E879F87C093662A6D
:103CC000D093672A8091522A81608D7F8B7F809369
:103CD000522A8091532A81608093532A80913E2AF0
:103CE000807F816080933E2A84E180933F2A83E530
:103CF00090E0A0E0B0E180935C2A90935D2AA093CD
:103D00005E2AB0935F2A84E290E0ADE0B1EC80934C
:103D1000602A9093612AA093622AB093632A70E08C
:103D200060E08EE00E94A80588E08093F02988E694
:103D300094E08093F1299093F2291092FB2910923C
:103D4000FD291092FC291092FA291092F92910925B
:103D5000F8291092F7291092F6291092F52910925D
:103D6000F4291092F32980EF99E28093042A90932A
:103D7000052A1092022A1092032A1092FE2989E045
:103D80008093FF291093002A1093012A1092102A81
:103D90001092112A80E090E0AEEFB2EC8093142AEA
:103DA0009093152AA093162AB093172A8093182A65
:103DB0009093192AA0931A2AB0931B2A1092C52A0D
:103DC0001092C62A48EE53E060E070E04093C72AA4
:103DD0005093C82A6093C92A7093CA2A88E19FE940
:103DE0008093C32A9093C42A20E238E02093CF2AFC
:103DF0003093D02A1092D12A1093D22A24E0209313
:103E0000D32A1092D52A1092D62A1092D72A10922D
:103E1000D82A2BE12093D92A1092DA2A1092DB2A91
:103E200010925E2B10925F2B4093602B5093612B6E
:103E30006093622B7093632B80935C2B90935D2B2C
:103E400080E698E08093682B9093692B88E18093BB
:103E50006A2B89E180936B2B80E480936C2B10920A
:103E60006E2B10926F2B1092702B1092712B86E29A
:103E70008093722B1092732B1092742BDF91CF9141
:103E80001F910895CF93DF93CDB7DEB76197CDBF74
:103E9000DEBF88ED90E084BF9093610080E094E203
:103EA000A4EFB0E08093002890930128A09302280B
:103EB000B093032880910206866080930206809169
:103EC0000006816080930006809102068F7C8093BB
:103ED00002068091A0008F788093A0008091020656
:103EE0008061809302061092E20581E08093E405F0
:103EF00083E08093010A8FEF90E08093260A9093ED
:103F0000270A80E890E08093380A9093390A8093DA
:103F10003A0A90933B0A80933C0A90933D0A8BE0C7
:103F20008093000A8091E50581608093E50580918A
:103F3000E50582608093E505E0E8FAE037E02FEFE1
:103F400090E885E031832487958780837096E03CF4
:103F50004AE0F407B9F780E094E0809398289093C2
:103F6000992880919828909199282FEF30E0B901F5
:103F70000E94B02960939628709397288091982882
:103F800090919928E8EEF3E0BF010E94B029609378
:103F90008E2870938F288091982890919928BF013E
:103FA0000E94B02980938C2890938D282093BC0A7E
:103FB0003093BD0A8091B50A81608093B50A84E090
:103FC0008093B00A8091B00A81608093B00A78949F
:103FD00040E052EC61E070E08CE59BE20E94301022
:103FE00044E050E070E060E08AE69AE20E94C8286F
:103FF00044E050E064E070E08EE69AE20E94C82857
:1040000042E050E068E070E082E79AE20E94C8284F
:1040100042E050E06AE070E084E79AE20E94C8283B
:1040200041E050E06CE070E086E79AE20E94C82828
:1040300044E050E06DE070E087E79AE20E94C82813
:1040400044E050E061E170E08BE79AE20E94C8280A
:1040500041E050E065E170E08FE79AE20E94C828F5
:1040600041E050E066E170E080E89AE20E94C828F2
:1040700041E050E067E170E081E89AE20E94C828E0
:10408000F12CE12C08E110E08091B62A9091B72A3A
:10409000E816F9060CF00EC144E050E0B80182E8E1
:1040A0009AE20E94C828B8016C5F7F4F44E050E05C
:1040B00086E89AE20E94C828B801685F7F4F44E012
:1040C00050E08AE89AE20E94C828045F1F4F80915E
:1040D0006E2A90916F2AA091702AB091712A409116
:1040E0006A2A50916B2A60916C2A70916D2A840F14
:1040F000951FA61FB71F4091772A5091782A60918B
:10410000792A70917A2A840F951FA61FB71F4091B4
:104110007B2A50917C2A60917D2A70917E2A840F9F
:10412000951FA61FB71F4091822A5091832A609144
:10413000842A7091852A840F951FA61FB71F20918E
:10414000762A820F911DA11DB11D2091802A820F18
:10415000911DA11DB11D2091812A820F911DA11DCC
:10416000B11D2091722A820F911DA11DB11D2091B8
:10417000742A820F911DA11DB11D20917F2A820FEB
:10418000911DA11DB11D40918A2A50918B2A6091E9
:104190008C2A70918D2A481759076A077B0709F006
:1041A00085C08091B22A9091B32A081B190B009305
:1041B000B82A1093B92A0E9444086093BB2A7093CE
:1041C000BC2A8093BD2A9093BE2A0E9414118AE6CD
:1041D0009AE28093EC299093ED298CE19AE2809306
:1041E000EE299093EF29E091042AF091052A138695
:1041F00015861486128611861086178216821582FD
:10420000148213821092022A1092032A01E0BE0146
:10421000665F7F4F8091042A9091052A0E94391091
:10422000882309F49BC067E0CE010A960E94A7028A
:1042300099898913ECCF8091042A9091052A2091C5
:10424000FE29211124C00E946F03BE01665F7F4FCB
:104250008091042A9091052A0E94500340E064EB6B
:104260008091042A9091052A0E941A038091042AC1
:104270009091052A0E94BE02182F8091042A9091E5
:10428000052A0E946F03111102C00093FE291091AC
:10429000FF298091042A9091052A2A852031C9F1AD
:1042A0000E946F03811115C080E036C08FEFE81ABD
:1042B000F80AEACE84E2EEE8FAE2AAE6BAE201906F
:1042C0000D928A95E1F761E08AE69AE20E942B134B
:1042D00072CFAE014F5F5F4FBE01665F7F4F8EEFC3
:1042E00099E20E94AE038823F9F268E0CE010196BC
:1042F0000E94A70299858913D7CF8D818F3359F0FA
:1043000020F48F3189F689E007C08F35F9F08F37B7
:1043100059F68CE001C08AE0912F181708F4982F05
:104320009093FF298091022A8F5F8093022A8A85C9
:10433000883231F068F4803119F0823209F067CFA9
:104340008091032A8F5F8093032A61CF8BE0E4CFB3
:104350008B33B1F3823409F05ACFF2CF8AE69AE276
:1043600080931028909311288CE19AE28093122870
:10437000909313288CEE99E280931428909315283B
:104380008FE098E2809316289093172880E198E2B6
:10439000809356299093572901E011E08091212ABA
:1043A00081110FC00E94141181110BC00E9483144F
:1043B00064EF71E080E090E00E94A3070E941B1070
:1043C000EDCF8091262A882309F4D4C00E944408A6
:1043D000C0902E2AD0902F2AE090302AF090312AD7
:1043E0006C197D098E099F0962337105810591055C
:1043F00008F0B6C08091282A8823A1F080911C2A59
:1044000090911D2AFC01408D518D628D738D2091FC
:10441000292A222309F472C04F5F5F4F6F4F7F4FED
:104420000E94620BE0911C2AF0911D2A848D958DCB
:10443000A68DB78D408D518D628D738D8417950734
:10444000A607B70708F05FC0658970E082E00E94A8
:10445000080661E070E083E00E94080670E060E01A
:1044600083E00E940806A0901C2AB0901D2AF50146
:10447000C08CD18CE28CF38C80819181A281B3813C
:10448000F1E0CF1AD108E108F1088C159D05AE05C1
:10449000BF0510F46C017D010E944408F501EB5A40
:1044A000FF4F6083718382839383F501C08ED18E29
:1044B000E28EF38E8091362A9091372A82309105D0
:1044C00038F0880F991F880F991F05970197F1F70A
:1044D0008091282A882309F479CF80911E2A90910F
:1044E0001F2A0E94D80B181619060CF46FCF809162
:1044F0001E2A90911F2A0E94110C68CF4150510929
:10450000610971098DCF481759076A077B0718F5AC
:104510006589602770E082E00E94080661E070E033
:1045200083E00E94080670E060E083E00E940806D5
:10453000A0901C2AB0901D2AF501C08CD18CE28C71
:10454000F38C80819181A281B381FFEFCF1ADF0AC2
:10455000EF0AFF0A9ACF8CE19AE20E94AE0BB8CF25
:104560000E94440860932E2A70932F2A8093302A49
:104570009093312A0E9483148091262A81111ECFA4
:10458000C090BB2AD090BC2AE090BD2AF090BE2AF1
:10459000F8E8CF0EF3E1DF1EE11CF11C0E94440895
:1045A000C616D706E806F90608F0FDC08091BA2ABB
:1045B000882329F060E08AE69AE20E942B130E9489
:1045C00044086093BB2A7093BC2A8093BD2A9093C1
:1045D000BE2A0E9444086B017C0180918028909142
:1045E0008128A0918228B0918328B701A601481B99
:1045F000590B6A0B7B0B4D3251406105710520F45C
:10460000892B8A2B8B2BA9F4C0928028D0928128E9
:10461000E0928228F09283288091122A811109C0A9
:104620000E940801865491408C30924010F41093FF
:10463000122A80917C2890917D28A0917E28B091AB
:104640007F28B701A601481B590B6A0B7B0B493821
:1046500053416105710520F4892B8A2B8B2B41F581
:10466000C0927C28D0927D28E0927E28F0927F280C
:104670008091132A81111CC08EEF99E20E9450088C
:104680008EEF99E20E94E0106B017C0120E030E0A7
:104690004EEF52EC0E94A427882351F0C092142AB6
:1046A000D092152AE092162AF092172A1093132A14
:1046B0008CEE99E20E94110C8091132A882309F450
:1046C0007DCE0E944408C0908828D0908928E09030
:1046D0008A28F0908B286C197D098E099F0968380B
:1046E00073418105910508F469CE0E9444086093E6
:1046F00088287093892880938A2890938B288EEF3E
:1047000099E20E9450088EEF99E20E94E0106B013E
:104710007C01C0928428D0928528E0928628F0926D
:104720008728BE016F5F7F4F8EEF99E20E94B9101C
:10473000811160C08AE9882E89E9982E84E4A82E28
:1047400083ECB82E20E030E04EEF52ECC701B6010A
:104750000E94A427882309F46EC020E030E040E7DF
:1047600052E4C701B6010E94A42787FF64C020E07D
:1047700030E040E752ECC701B6010E94292B181621
:104780000CF059C0C092142AD092152AE092162A31
:10479000F092172A8092182A9092192AA0921A2A27
:1047A000B0921B2A0BCE8091BF2A9091C02AA09173
:1047B000C12AB091C22A0097A105B10509F409CF19
:1047C000C0907B2AD0907C2AE0907D2AF0907E2AAF
:1047D000C80ED91EEA1EFB1E0E944408C616D70644
:1047E000E806F90608F0F5CE60E08AE69AE20E9453
:1047F0002B13EFCEBE016F5F7F4F8EEF99E20E94C9
:10480000FB03813824EE92070CF494CFBC01990F7E
:10481000880B990B0E94AB2726E636E646E65CE35A
:104820000E940A2820E030E040E052E40E94152A6D
:104830004B015C0187CF1092132A80E090E0AEEF2D
:10484000B2EC8093142A9093152AA093162AB09361
:10485000172A8093182A9093192AA0931A2AB093A2
:104860001B2AACCDEF920F931F93CF93DF93E801F8
:1048700034E047FD34E1042E000C550B57FF03C014
:10488000519541955109E32E022F242FAE010E942C
:104890006A25CE01DF91CF911F910F91EF9008957E
:1048A000B0E0A0E0E6E5F4E20C9468295C016B015D
:1048B0007A016115710519F0FB0180839183E11480
:1048C000F10449F0C7010297839728F060E070E097
:1048D000CB019CC05E01E5012196F5011081812F7D
:1048E00090E00E945925892BA9F71D3209F056C086
:1048F0002196F501118101E0E114F10409F4AEC043
:10490000F0E1EF16F10409F08EC0103341F4888114
:104910008F7D883509F083C0198122960260E0E11D
:10492000EE2EF12C88248A94982CA82CFFE0BF2E20
:1049300020E060E070E0CB0127010F2C000C66083E
:104940007708FE0150ED352E310E39E0331538F47D
:104950003FEB310F3A31A0F549EC342E310E3E14C5
:104960001F04BCF52F3FB9F086169706A806B906B6
:1049700070F1A30192010E940329232D30E050E041
:1049800040E0620F731F841F951F6217730784072F
:104990009507E8F021E021961081D3CF1B3221F456
:1049A000E5012296F501118100E0A6CF78E0E72E1F
:1049B000F12C88248A94982CA82C6FE1B62EB8CFBD
:1049C0003FE9310F3A3128F439EA332EC7CF2FEFC0
:1049D000E2CFC114D10431F02223E9F02197F6018E
:1049E000C083D18300FF07C0909580957095619535
:1049F0007F4F8F4F9F4F2F3F49F482E290E080938B
:104A0000F52B9093F62B6FEF7FEFCB01CDB7DEB791
:104A1000E1E10C94812901FFE5CF2297E0CF10E37B
:104A2000E114F10419F23AE0E316F104E9F080E14F
:104A3000E816F10409F473CFE8E0EE16F10409F486
:104A4000B8CF6FEF7FEFCB0197010F2C000C440B19
:104A5000550B0E94132949015A016ACF103309F4FA
:104A600056CF9AE0E92EF12C89E9882E982CA82CB3
:104A700089E1B82E5DCFFC0188279927E894219120
:104A80002032E9F3293010F02E30C8F32B3241F0F8
:104A90002D3239F4689404C00E946225820F911D62
:104AA000219120532A30C0F31EF4909581959F4F99
:104AB000089591110C94A127803219F089508550E6
:104AC000C8F708957AE0979F902D879F802D910DCC
:104AD00011240895A9E0B0E0E0E7F5E20C946D2917
:104AE0006A01F22EB02E102FFBE3AF2EA01608F4B1
:104AF0001BE31F5F012F27E0AE014F5F5F4F0E9456
:104B0000C926BC018981982F9970913009F43FC062
:104B10009BE2E1FC04C09E2D9170E0FC3AC05E2D4A
:104B20005071E82FE87083FF46C084E0911101C006
:104B300083E0EF2DE81B8F1508F0E0E0D6018E2F03
:104B400020E2552351F1992329F0D6019C93C60107
:104B500001966C0196012D5F3F4FE2FE24C08EE46A
:104B6000D6018C9391E411969C93119712968C9395
:104B7000D9018E2F90E281111BC0E20FF32FF11D9E
:104B800010828EEF9FEF2996ECE00C9486299DE22F
:104B9000C6CF90E2C4CF2D9381508111FCCFCE0EB1
:104BA000D11CE0E0D0CF8EE6D6018C9391E6DBCF2E
:104BB0009D938150E0CF482F447082FF3DC084E038
:104BC000911101C083E08F1510F4EF2DE81BD60181
:104BD0008E2F20E2552309F1992329F0D6019C93C9
:104BE000C60101966C0196012D5F3F4FE2FE1BC08E
:104BF00089E4D6018C938EE411968C93119786E408
:104C000012968C93D9018E2F90E2882309F4B5CFA8
:104C10009D938150FACF2D9381508111FCCFCE0E00
:104C2000D11CE0E0D9CF89E6D6018C938EE61196AF
:104C30008C93119786E6E4CF9B0177FF02C030E0AA
:104C400020E0A1E0B0E0911102C0B0E0A0E0F901E5
:104C50003196AE0FBF1F8B2C912CBB2009F461C085
:104C60005401EFEFAE1ABE0AAA0DBB1DFA161B06C1
:104C700019F014F04F2D4A1B511188C0E3FC59C0A4
:104C80007601A42FB0E2A1114FC0C40ED11C99230C
:104C900009F45BC040E0D6011196F60190836D01E6
:104CA000552309F448C0012F060F9A81582F5071DF
:104CB00084FF03C0913309F4015010160CF047C073
:104CC000093008F008E0EEE2FE2E5B01A01AB10800
:104CD00085019194819491082F3F320729F4D601E0
:104CE000FC92F60131966F016217730794F1021777
:104CF00013077CF5DB01A21BB30BAA24A394B12CF0
:104D0000AC0EBD1EAA0DBB1D11968C912150310910
:104D1000D601119628153905F4F0F60180836D014E
:104D2000DBCFB12CA12CA0CFF701B1937F01A15013
:104D3000AACF9111B0CFD601942F50E302C05D935A
:104D400091509111FCCFC40ED11C40E0ACCF01E0DA
:104D5000BACF80E3DBCF6217730731F4963388F460
:104D6000953311F4552369F0F6018083FD01842FFA
:104D700090E2811108C0A40FB11D1C9290E080E068
:104D800002CF81E3F1CF91938150F3CF911183CF83
:104D90008ACF283008F027E03327DA01990F311D38
:104DA00087FD916000966105710539F432602E5FD0
:104DB0003D9330E32A95E1F708959F3F30F0803826
:104DC0007105610509F03C5F3C5F3D93913008F04F
:104DD0008068911DDF93CF931F930F93FF92EF9203
:104DE000192F987F9695E92F96959695E90FFF27AD
:104DF000E650FF4F99273327EE24FF24A701E70150
:104E000005900894079428F4360FE71EF81E491FF2
:104E1000511D660F771F881F991F0694A1F70590F3
:104E2000079428F4E70EF81E491F561FC11D770F7F
:104E3000881F991F661F0694A1F70590079428F410
:104E4000F80E491F561FC71FD11D880F991F661FD7
:104E5000771F0694A1F70590079420F4490F561F79
:104E6000C71FD81F990F661F771F881F0694A9F7C1
:104E700084911095177041F0D695C7955795479531
:104E8000F794E7941A95C1F7E0EAF0E0689415907A
:104E9000159135916591959105907FE27395E11893
:104EA000F10A430B560BC90BD009C0F7E10CF11EF8
:104EB000431F561FC91FD01D7EF4703311F48A950D
:104EC000E6CFE894015030F0080F0AF400270217EB
:104ED00008F4202F2395022F7A3328F079E37D936D
:104EE0002A95E9F710C07D932A9589F6069497953F
:104EF0006795379517951794E118F10A430B560BF0
:104F0000C90BD00998F023957E9173957A3308F0F8
:104F100070E37C932013B8F77E9170617D9330F03D
:104F2000839571E37D9370E32A95E1F71124EF9067
:104F3000FF900F911F91CF91DF91992787FD909559
:104F400008959927882708950E94E62708F481E0AC
:104F50000895E89409C097FB3EF49095809570956C
:104F600061957F4F8F4F9F4F9923A9F0F92F96E9B5
:104F7000BB279395F695879577956795B795F1112A
:104F8000F8CFFAF4BB0F11F460FF1BC06F5F7F4FC7
:104F90008F4F9F4F16C0882311F096E911C07723D9
:104FA00021F09EE8872F762F05C0662371F096E8E2
:104FB000862F70E060E02AF09A95660F771F881FB1
:104FC000DAF7880F9695879597F90895990F000855
:104FD000550FAA0BE0E8FEEF16161706E807F907CB
:104FE000C0F012161306E407F50798F0621B730B66
:104FF000840B950B39F40A2661F0232B242B252BE7
:1050000021F408950A2609F4A140A6958FEF811D89
:10501000811D08950E941D280C948E280E948028CE
:1050200038F00E94872820F0952311F00C947728FF
:105030000C947D2811240C94C2280E949F2870F3A0
:10504000959FC1F3950F50E0551F629FF001729F2D
:10505000BB27F00DB11D639FAA27F00DB11DAA1F3C
:10506000649F6627B00DA11D661F829F2227B00D89
:10507000A11D621F739FB00DA11D621F839FA00D14
:10508000611D221F749F3327A00D611D231F849F64
:10509000600D211D822F762F6A2F11249F575040BB
:1050A0009AF0F1F088234AF0EE0FFF1FBB1F661F36
:1050B000771F881F91505040A9F79E3F510580F0FF
:1050C0000C9477280C94C2285F3FE4F3983ED4F305
:1050D000869577956795B795F795E7959F5FC1F7A3
:1050E000FE2B880F911D9695879597F9089597F94E
:1050F0009F6780E870E060E008959FEF80EC08957E
:1051000000240A94161617061806090608950024A6
:105110000A9412161306140605060895092E039420
:10512000000C11F4882352F0BB0F40F4BF2B11F494
:1051300060FF04C06F5F7F4F8F4F9F4F089557FDF3
:105140009058440F551F59F05F3F71F04795880FF5
:1051500097FB991F61F09F3F79F08795089512168C
:1051600013061406551FF2CF4695F1DF08C0161638
:1051700017061806991FF1CF8695710561050894E9
:105180000895E894BB2766277727CB0197F9089500
:1051900060507C4E0C94A729DC01A40FB51F415030
:1051A000504048F0CB01840F951F2E910E94DD28BE
:1051B00041505040D0F70895262F0E94FF280080CC
:1051C000021619F00E94E828019701970895262FEA
:1051D000AF93BF93E0E0F0E1328131FDFDCFDC0120
:1051E000A050BC4E2C932DE924BF23E020830196D0
:1051F000BF91AF91089503D0808199270895FC0154
:10520000E050FC4E0895DB018F939F930E94542938
:10521000BF91AF91A29F800D911DA39F900DB29F52
:10522000900D11240895A1E21A2EAA1BBB1BFD01AB
:105230000DC0AA1FBB1FEE1FFF1FA217B307E40775
:10524000F50720F0A21BB30BE40BF50B661F771FCD
:10525000881F991F1A9469F76095709580959095AD
:105260009B01AC01BD01CF010895052E97FB1EF4F3
:1052700000940E944C2957FD07D00E94132907FC77
:1052800003D04EF40C944C295095409530952195BF
:105290003F4F4F4F5F4F0895909580957095619562
:1052A0007F4F8F4F9F4F08950E949829A59F900D83
:1052B000B49F900DA49F800D911D11240895B7FFF8
:1052C0000C9454290E945429821B930B08952F9209
:1052D0003F924F925F926F927F928F929F92AF9286
:1052E000BF92CF92DF92EF92FF920F931F93CF93D3
:1052F000DF93CDB7DEB7CA1BDB0BCDBFDEBF099492
:105300002A88398848885F846E847D848C849B8455
:10531000AA84B984C884DF80EE80FD800C811B8163
:10532000AA81B981CE0FD11DCDBFDEBFED01089599
:10533000A29FB001B39FC001A39F700D811D1124D6
:10534000911DB29F700D811D1124911D0895FB01C7
:10535000DC0102C001900D9241505040D8F70895F1
:10536000AA1BBB1B51E107C0AA1FBB1FA617B7078B
:1053700010F0A61BB70B881F991F5A95A9F78095A7
:105380009095BC01CD01089597FB072E16F400946B
:1053900007D077FD09D00E94B02907FC05D03EF464
:1053A000909581959F4F0895709561957F4F0895D1
:1053B000002E083090F0982F872F762F652F542FCE
:1053C000432F322F22270850F4CF220F331F441FC0
:1053D000551F661F771F881F991F0A95B2F7002D6A
:1053E000089597FD1094002E083098F00850232F50
:1053F000342F452F562F672F782F892F912DF4CFDB
:10540000159497958795779567955795479537950F
:1054100027950A95AAF71124002D0895EE0FFF1F76
:105420000590F491E02D09945058BB27AA270E94BB
:105430002C2A0C948E280E94802838F00E948728FD
:1054400020F039F49F3F19F426F40C947D280EF4D3
:10545000E095E7FB0C947728E92F0E949F2858F3EA
:10546000BA17620773078407950720F079F4A6F549
:105470000C94C1280EF4E0950B2EBA2FA02D0B0131
:10548000B90190010C01CA01A0011124FF27591B89
:1054900099F0593F50F4503E68F11A16F040A22F8F
:1054A000232F342F4427585FF3CF46953795279500
:1054B000A795F0405395C9F77EF41F16BA0B620BFF
:1054C000730B840BBAF09150A1F0FF0FBB1F661F46
:1054D000771F881FC2F70EC0BA0F621F731F841F89
:1054E00048F4879577956795B795F7959E3F08F0AF
:1054F000B0CF9395880F08F09927EE0F9795879571
:1055000008950E94952A0C948E280E94872858F0AE
:105510000E94802840F029F45F3F29F00C947728FE
:1055200051110C94C2280C947D280E949F2868F386
:105530009923B1F3552391F3951B550BBB27AA274C
:1055400062177307840738F09F5F5F4F220F331F86
:10555000441FAA1FA9F335D00E2E3AF0E0E832D04E
:1055600091505040E695001CCAF72BD0FE2F29D051
:10557000660F771F881FBB1F261737074807AB0723
:10558000B0E809F0BB0B802DBF01FF2793585F4F98
:105590003AF09E3F510578F00C9477280C94C2287D
:1055A0005F3FE4F3983ED4F3869577956795B7957A
:1055B000F7959F5FC9F7880F911D9695879597F985
:1055C0000895E1E0660F771F881FBB1F62177307FE
:1055D0008407BA0720F0621B730B840BBA0BEE1F13
:1055E00088F7E09508950E94FA2A6894B1110C9406
:1055F000C22808950E94A72888F09F5798F0B92FD5
:105600009927B751B0F0E1F0660F771F881F991FF7
:105610001AF0BA95C9F714C0B13091F00E94C128B0
:10562000B1E008950C94C128672F782F8827B85FC0
:1056300039F0B93FCCF3869577956795B395D9F74F
:105640003EF490958095709561957F4F8F4F9F4F59
:1056500008950E94E62708F48FEF08950E94E62738
:10566000880B990B08950F931F93CF93DF9382308C
:10567000910510F482E090E0E091F92BF091FA2B83
:1056800030E020E0B0E0A0E0309799F4211531053A
:1056900009F44AC0281B390B24303105D8F58A811A
:1056A0009B816115710589F1FB0182839383FE0162
:1056B00011C0408151810281138148175907E0F0E0
:1056C0004817590799F4109761F012960C931297A6
:1056D00013961C933296CF01DF91CF911F910F91BA
:1056E00008950093F92B1093FA2BF4CF211531056F
:1056F00051F04217530738F0A901DB019A01BD01AF
:10570000DF01F801C1CFEF01F9CF8093F92B90931E
:10571000FA2BCDCFFE01E20FF31F8193919322501C
:10572000310928833983D7CF2091F72B3091F82B7B
:10573000232B41F420910628309107282093F72B42
:105740003093F82B2091042830910528211531053C
:1057500041F42DB73EB74091082850910928241BE9
:10576000350BE091F72BF091F82BE217F307A0F43B
:105770002E1B3F0B2817390778F0AC014E5F5F4FA7
:105780002417350748F04E0F5F1F4093F72B5093B7
:10579000F82B819391939FCFF0E0E0E09CCFCF93E3
:1057A000DF930097E9F0FC01329712821382A091F7
:1057B000F92BB091FA2BED0130E020E01097A1F425
:1057C00020813181820F931F2091F72B3091F82B8C
:1057D0002817390709F061C0E093F72BF093F82BF5
:1057E000DF91CF910895EA01CE17DF07E8F54A81EE
:1057F0005B819E0141155105B1F7E901EA83FB8305
:1058000049915991C40FD51FEC17FD0761F48081B0
:1058100091810296840F951FE90188839983828183
:1058200093818A839B83F0E0E0E012968D919C91B6
:1058300013970097B9F52D913C911197CD010296E0
:10584000820F931F2091F72B3091F82B28173907DF
:1058500039F6309751F51092F92B1092FA2BA0934C
:10586000F72BB093F82BBCCFC283D38340815181F7
:10587000840F951FC817D90761F44E5F5F4F888169
:105880009981480F591F408351838A819B8182836C
:1058900093832115310509F0B0CFE093F92BF093F4
:1058A000FA2B9ECFFD01DC01C0CF12821382D7CF2D
:1058B00081E090E0F8940C94162FFB01DC018D91AF
:1058C000019080190110D9F3990B0895FB01DC01B7
:1058D0004150504048F001900D920020C9F701C09E
:1058E0001D9241505040E0F70895AEE0B0E0EBE784
:1058F000FCE20C9475290D891E8986E08C8309834E
:105900001A838FEF9FE78D839E83AE01475E5F4FC3
:105910006F89788DCE0101960E94982C2F81388551
:10592000020F131FF80110822E96E4E00C948E29CA
:10593000ABE0B0E0EEE9FCE20C9467297C013B01AE
:105940008A01FC0116821782838181FFC8C1CE01C2
:1059500001965C01F7019381F30193FD859193FF1B
:1059600081913F01882309F453C1853239F493FDB5
:10597000859193FF81913F01853229F4B70190E031
:105980000E94882EE7CF912C212C312CFFE1F315BA
:1059900038F08B3211F190F4803209F1833229F121
:1059A00037FC3CC020ED280F2A3050F536FE20C0D1
:1059B0008AE0989E200D1124922E06C08D3291F01F
:1059C000803371F7689430F8F30193FD859193FF6C
:1059D00081913F018111DACF21C0689431F8689438
:1059E00032F8F2CF689433F8EFCF689434F8ECCF04
:1059F000EAE02E9E200D1124222E689435F8E4CF83
:105A00008E3229F436FC04C1689436F8DDCF8C362A
:105A100019F4689437F8D8CF8836B1F2982F9F7D63
:105A200095549330E0F08336A1F18337C1F183358B
:105A300009F063C02801F2E04F0E511CF801C0804C
:105A4000D180692D70E036FC02C06FEF7FEFC60198
:105A50000E94722E4C01689437F882010AC00C5FD4
:105A60001F4FFFE3F98388248394912C6501E89408
:105A700037F833FE2DC0522C8114910471F5552056
:105A800009F468CFB70180E290E00E94882E5A9412
:105A9000F6CFF801808189830E5F1F4FE4CF280184
:105AA000F2E04F0E511CF801C080D180692D70E0EA
:105AB00036FC02C06FEF7FEFC6010E947D2E4C01C5
:105AC0008201D5CFB70180E290E00E94882E2A940F
:105AD0002814190409F0B0F7CECFF60137FC8591F0
